{
  "_format": "hh-sol-artifact-1",
  "contractName": "RSPGame",
  "sourceName": "contracts/RSPgame.sol",
  "abi": [
    {
      "inputs": [],
      "stateMutability": "nonpayable",
      "type": "constructor"
    },
    {
      "inputs": [
        {
          "internalType": "address",
          "name": "have",
          "type": "address"
        },
        {
          "internalType": "address",
          "name": "want",
          "type": "address"
        }
      ],
      "name": "OnlyCoordinatorCanFulfill",
      "type": "error"
    },
    {
      "anonymous": false,
      "inputs": [
        {
          "indexed": true,
          "internalType": "address",
          "name": "previousOwner",
          "type": "address"
        },
        {
          "indexed": true,
          "internalType": "address",
          "name": "newOwner",
          "type": "address"
        }
      ],
      "name": "OwnershipTransferred",
      "type": "event"
    },
    {
      "anonymous": false,
      "inputs": [
        {
          "indexed": false,
          "internalType": "uint256",
          "name": "amountBet",
          "type": "uint256"
        },
        {
          "indexed": false,
          "internalType": "address",
          "name": "player",
          "type": "address"
        },
        {
          "indexed": false,
          "internalType": "uint32",
          "name": "numberGame",
          "type": "uint32"
        }
      ],
      "name": "newGame",
      "type": "event"
    },
    {
      "anonymous": false,
      "inputs": [
        {
          "indexed": false,
          "internalType": "uint256",
          "name": "amountWin",
          "type": "uint256"
        },
        {
          "indexed": false,
          "internalType": "address",
          "name": "winnerAddress",
          "type": "address"
        },
        {
          "indexed": false,
          "internalType": "uint32",
          "name": "numberGame",
          "type": "uint32"
        }
      ],
      "name": "newWin",
      "type": "event"
    },
    {
      "inputs": [],
      "name": "amountFee",
      "outputs": [
        {
          "internalType": "uint256",
          "name": "",
          "type": "uint256"
        }
      ],
      "stateMutability": "view",
      "type": "function"
    },
    {
      "inputs": [],
      "name": "amountFeeToken",
      "outputs": [
        {
          "internalType": "uint256",
          "name": "",
          "type": "uint256"
        }
      ],
      "stateMutability": "view",
      "type": "function"
    },
    {
      "inputs": [
        {
          "internalType": "uint32",
          "name": "_callbackGasLimit",
          "type": "uint32"
        }
      ],
      "name": "changeCallbackGasLimit",
      "outputs": [],
      "stateMutability": "nonpayable",
      "type": "function"
    },
    {
      "inputs": [
        {
          "internalType": "uint32",
          "name": "_feeGame",
          "type": "uint32"
        }
      ],
      "name": "changeFee",
      "outputs": [],
      "stateMutability": "nonpayable",
      "type": "function"
    },
    {
      "inputs": [
        {
          "internalType": "bytes32",
          "name": "_keyHash",
          "type": "bytes32"
        }
      ],
      "name": "changeKeyHash",
      "outputs": [],
      "stateMutability": "nonpayable",
      "type": "function"
    },
    {
      "inputs": [
        {
          "internalType": "uint64",
          "name": "_subscriptionId",
          "type": "uint64"
        }
      ],
      "name": "changeSubscriptionId",
      "outputs": [],
      "stateMutability": "nonpayable",
      "type": "function"
    },
    {
      "inputs": [
        {
          "internalType": "uint256",
          "name": "amountBet",
          "type": "uint256"
        },
        {
          "internalType": "uint8",
          "name": "userProperty",
          "type": "uint8"
        }
      ],
      "name": "createGame",
      "outputs": [],
      "stateMutability": "payable",
      "type": "function"
    },
    {
      "inputs": [
        {
          "internalType": "uint256",
          "name": "amountBet",
          "type": "uint256"
        },
        {
          "internalType": "uint8",
          "name": "userProperty",
          "type": "uint8"
        }
      ],
      "name": "createTokenGame",
      "outputs": [],
      "stateMutability": "nonpayable",
      "type": "function"
    },
    {
      "inputs": [],
      "name": "deposit",
      "outputs": [],
      "stateMutability": "payable",
      "type": "function"
    },
    {
      "inputs": [],
      "name": "feeGame",
      "outputs": [
        {
          "internalType": "uint32",
          "name": "",
          "type": "uint32"
        }
      ],
      "stateMutability": "view",
      "type": "function"
    },
    {
      "inputs": [],
      "name": "gameNumber",
      "outputs": [
        {
          "internalType": "uint32",
          "name": "",
          "type": "uint32"
        }
      ],
      "stateMutability": "view",
      "type": "function"
    },
    {
      "inputs": [
        {
          "internalType": "uint256",
          "name": "_gameNumber",
          "type": "uint256"
        }
      ],
      "name": "getGameResult",
      "outputs": [
        {
          "internalType": "uint8",
          "name": "userProperty",
          "type": "uint8"
        },
        {
          "internalType": "uint8",
          "name": "oracleProperty",
          "type": "uint8"
        }
      ],
      "stateMutability": "view",
      "type": "function"
    },
    {
      "inputs": [
        {
          "internalType": "uint256",
          "name": "_gameNumber",
          "type": "uint256"
        }
      ],
      "name": "getOracleNumber",
      "outputs": [
        {
          "internalType": "uint256",
          "name": "oracleNumber",
          "type": "uint256"
        }
      ],
      "stateMutability": "view",
      "type": "function"
    },
    {
      "inputs": [
        {
          "internalType": "uint256",
          "name": "_requestId",
          "type": "uint256"
        }
      ],
      "name": "getRequestStatus",
      "outputs": [
        {
          "internalType": "bool",
          "name": "fulfilled",
          "type": "bool"
        },
        {
          "internalType": "uint256[]",
          "name": "randomWords",
          "type": "uint256[]"
        }
      ],
      "stateMutability": "view",
      "type": "function"
    },
    {
      "inputs": [],
      "name": "maxAmountBet",
      "outputs": [
        {
          "internalType": "uint256",
          "name": "",
          "type": "uint256"
        }
      ],
      "stateMutability": "view",
      "type": "function"
    },
    {
      "inputs": [],
      "name": "maxAmountTokenBet",
      "outputs": [
        {
          "internalType": "uint256",
          "name": "",
          "type": "uint256"
        }
      ],
      "stateMutability": "view",
      "type": "function"
    },
    {
      "inputs": [],
      "name": "minAmountBet",
      "outputs": [
        {
          "internalType": "uint256",
          "name": "",
          "type": "uint256"
        }
      ],
      "stateMutability": "view",
      "type": "function"
    },
    {
      "inputs": [],
      "name": "minAmountTokenBet",
      "outputs": [
        {
          "internalType": "uint256",
          "name": "",
          "type": "uint256"
        }
      ],
      "stateMutability": "view",
      "type": "function"
    },
    {
      "inputs": [],
      "name": "owner",
      "outputs": [
        {
          "internalType": "address",
          "name": "",
          "type": "address"
        }
      ],
      "stateMutability": "view",
      "type": "function"
    },
    {
      "inputs": [
        {
          "internalType": "uint256",
          "name": "requestId",
          "type": "uint256"
        },
        {
          "internalType": "uint256[]",
          "name": "randomWords",
          "type": "uint256[]"
        }
      ],
      "name": "rawFulfillRandomWords",
      "outputs": [],
      "stateMutability": "nonpayable",
      "type": "function"
    },
    {
      "inputs": [],
      "name": "renounceOwnership",
      "outputs": [],
      "stateMutability": "nonpayable",
      "type": "function"
    },
    {
      "inputs": [
        {
          "internalType": "uint256",
          "name": "",
          "type": "uint256"
        }
      ],
      "name": "s_games",
      "outputs": [
        {
          "internalType": "address payable",
          "name": "player",
          "type": "address"
        },
        {
          "internalType": "uint8",
          "name": "gameType",
          "type": "uint8"
        },
        {
          "internalType": "uint8",
          "name": "userProperty",
          "type": "uint8"
        },
        {
          "internalType": "uint256",
          "name": "amountBet",
          "type": "uint256"
        },
        {
          "internalType": "uint256",
          "name": "requestId",
          "type": "uint256"
        },
        {
          "internalType": "bool",
          "name": "isLive",
          "type": "bool"
        },
        {
          "internalType": "address",
          "name": "winner",
          "type": "address"
        }
      ],
      "stateMutability": "view",
      "type": "function"
    },
    {
      "inputs": [
        {
          "internalType": "uint256",
          "name": "",
          "type": "uint256"
        }
      ],
      "name": "s_requests",
      "outputs": [
        {
          "internalType": "bool",
          "name": "fulfilled",
          "type": "bool"
        },
        {
          "internalType": "bool",
          "name": "exists",
          "type": "bool"
        },
        {
          "internalType": "uint32",
          "name": "numberGame",
          "type": "uint32"
        }
      ],
      "stateMutability": "view",
      "type": "function"
    },
    {
      "inputs": [],
      "name": "tokenAddress",
      "outputs": [
        {
          "internalType": "address",
          "name": "",
          "type": "address"
        }
      ],
      "stateMutability": "view",
      "type": "function"
    },
    {
      "inputs": [
        {
          "internalType": "address",
          "name": "newOwner",
          "type": "address"
        }
      ],
      "name": "transferOwnership",
      "outputs": [],
      "stateMutability": "nonpayable",
      "type": "function"
    },
    {
      "inputs": [],
      "name": "withdrawAll",
      "outputs": [],
      "stateMutability": "nonpayable",
      "type": "function"
    },
    {
      "inputs": [],
      "name": "withdrawFee",
      "outputs": [],
      "stateMutability": "nonpayable",
      "type": "function"
    },
    {
      "inputs": [],
      "name": "withdrawFeeToken",
      "outputs": [],
      "stateMutability": "nonpayable",
      "type": "function"
    }
  ],
  "bytecode": "0x60a0604052736a2aad07396b36fe02a22b33cf443582f682c82f600260006101000a81548173ffffffffffffffffffffffffffffffffffffffff021916908373ffffffffffffffffffffffffffffffffffffffff1602179055507fd4bb89654db74673a187bd804519e65e3f71a52bc55f11da7601a13dcf50531460001b60035562030d40600460006101000a81548163ffffffff021916908363ffffffff16021790555060036004806101000a81548161ffff021916908361ffff1602179055506001600460066101000a81548163ffffffff021916908363ffffffff1602179055506109fd6004600a6101000a81548167ffffffffffffffff021916908367ffffffffffffffff16021790555073ed24fc36d5ee211ea25a80239fb8c4cfd80f12ee600660006101000a81548173ffffffffffffffffffffffffffffffffffffffff021916908373ffffffffffffffffffffffffffffffffffffffff1602179055506001600660146101000a81548163ffffffff021916908363ffffffff1602179055506003600660186101000a81548163ffffffff021916908363ffffffff160217905550662386f26fc10000600755670de0b6b3a764000060085567016345785d8a0000600a55678ac7230489e80000600b55348015620001e357600080fd5b50600260009054906101000a900473ffffffffffffffffffffffffffffffffffffffff168073ffffffffffffffffffffffffffffffffffffffff1660808173ffffffffffffffffffffffffffffffffffffffff1681525050506200025c620002506200032860201b60201c565b6200033060201b60201c565b600260009054906101000a900473ffffffffffffffffffffffffffffffffffffffff16600160006101000a81548173ffffffffffffffffffffffffffffffffffffffff021916908373ffffffffffffffffffffffffffffffffffffffff160217905550600660009054906101000a900473ffffffffffffffffffffffffffffffffffffffff16600560006101000a81548173ffffffffffffffffffffffffffffffffffffffff021916908373ffffffffffffffffffffffffffffffffffffffff160217905550620003f4565b600033905090565b60008060009054906101000a900473ffffffffffffffffffffffffffffffffffffffff169050816000806101000a81548173ffffffffffffffffffffffffffffffffffffffff021916908373ffffffffffffffffffffffffffffffffffffffff1602179055508173ffffffffffffffffffffffffffffffffffffffff168173ffffffffffffffffffffffffffffffffffffffff167f8be0079c531659141344cd1fd0a4f28419497f9722a3daafe3b4186f6b6457e060405160405180910390a35050565b608051613c47620004176000396000818161068801526106dc0152613c476000f3fe6080604052600436106101b75760003560e01c80639dcd61f5116100ec578063d9fa30f41161008a578063ed2df26d11610064578063ed2df26d14610589578063f2fde38b146105c7578063fb60e51f146105f0578063fcbad5c21461061b576101b7565b8063d9fa30f41461051e578063e86a51cb14610549578063e941fa7814610572576101b7565b8063bcd480a5116100c6578063bcd480a514610468578063d0e30db0146104ab578063d8a4676f146104b5578063d8d40cee146104f3576101b7565b80639dcd61f5146103e7578063a168fa89146103fe578063b08c77301461043d576101b7565b80635db896b311610159578063853828b611610133578063853828b6146103515780638da5cb5b146103685780639aaa07cb146103935780639d76ea58146103bc576101b7565b80635db896b3146102f5578063715018a6146103115780638142dd5314610328576101b7565b80631fe543e3116101955780631fe543e31461023b57806323f81792146102645780632f68f4821461028f5780633f0e9174146102b8576101b7565b806312a2a2ac146101bc57806316492772146101e757806319d7a11e14610212575b600080fd5b3480156101c857600080fd5b506101d1610646565b6040516101de9190612a16565b60405180910390f35b3480156101f357600080fd5b506101fc61064c565b6040516102099190612a16565b60405180910390f35b34801561021e57600080fd5b5061023960048036038101906102349190612a85565b610652565b005b34801561024757600080fd5b50610262600480360381019061025d9190612c37565b610686565b005b34801561027057600080fd5b50610279610746565b6040516102869190612a16565b60405180910390f35b34801561029b57600080fd5b506102b660048036038101906102b19190612cc9565b61074c565b005b3480156102c457600080fd5b506102df60048036038101906102da9190612cf6565b61075e565b6040516102ec9190612a16565b60405180910390f35b61030f600480360381019061030a9190612d5c565b610995565b005b34801561031d57600080fd5b50610326610f14565b005b34801561033457600080fd5b5061034f600480360381019061034a9190612dd8565b610f28565b005b34801561035d57600080fd5b50610366610fb1565b005b34801561037457600080fd5b5061037d6111c6565b60405161038a9190612e46565b60405180910390f35b34801561039f57600080fd5b506103ba60048036038101906103b59190612d5c565b6111ef565b005b3480156103c857600080fd5b506103d16118a8565b6040516103de9190612e46565b60405180910390f35b3480156103f357600080fd5b506103fc6118ce565b005b34801561040a57600080fd5b5061042560048036038101906104209190612cf6565b6119d4565b60405161043493929190612e8b565b60405180910390f35b34801561044957600080fd5b50610452611a28565b60405161045f9190612ec2565b60405180910390f35b34801561047457600080fd5b5061048f600480360381019061048a9190612cf6565b611a3e565b6040516104a29796959493929190612f0d565b60405180910390f35b6104b3611ae7565b005b3480156104c157600080fd5b506104dc60048036038101906104d79190612cf6565b611b2c565b6040516104ea92919061303a565b60405180910390f35b3480156104ff57600080fd5b50610508611c7d565b6040516105159190612ec2565b60405180910390f35b34801561052a57600080fd5b50610533611c93565b6040516105409190612a16565b60405180910390f35b34801561055557600080fd5b50610570600480360381019061056b9190612dd8565b611c99565b005b34801561057e57600080fd5b50610587611cc5565b005b34801561059557600080fd5b506105b060048036038101906105ab9190612cf6565b611d33565b6040516105be92919061306a565b60405180910390f35b3480156105d357600080fd5b506105ee60048036038101906105e991906130bf565b612053565b005b3480156105fc57600080fd5b506106056120d6565b6040516106129190612a16565b60405180910390f35b34801561062757600080fd5b506106306120dc565b60405161063d9190612a16565b60405180910390f35b600c5481565b60095481565b61065a6120e2565b806004600a6101000a81548167ffffffffffffffff021916908367ffffffffffffffff16021790555050565b7f000000000000000000000000000000000000000000000000000000000000000073ffffffffffffffffffffffffffffffffffffffff163373ffffffffffffffffffffffffffffffffffffffff161461073857337f00000000000000000000000000000000000000000000000000000000000000006040517f1cf993f400000000000000000000000000000000000000000000000000000000815260040161072f9291906130ec565b60405180910390fd5b6107428282612160565b5050565b600a5481565b6107546120e2565b8060038190555050565b6000600660149054906101000a900463ffffffff1663ffffffff1682106107ba576040517f08c379a00000000000000000000000000000000000000000000000000000000081526004016107b190613172565b60405180910390fd5b600e600083815260200190815260200160002060030160009054906101000a900460ff161561081e576040517f08c379a0000000000000000000000000000000000000000000000000000000008152600401610815906131de565b60405180910390fd5b6000600e60008481526020019081526020016000206040518060e00160405290816000820160009054906101000a900473ffffffffffffffffffffffffffffffffffffffff1673ffffffffffffffffffffffffffffffffffffffff1673ffffffffffffffffffffffffffffffffffffffff1681526020016000820160149054906101000a900460ff1660ff1660ff1681526020016000820160159054906101000a900460ff1660ff1660ff16815260200160018201548152602001600282015481526020016003820160009054906101000a900460ff161515151581526020016003820160019054906101000a900473ffffffffffffffffffffffffffffffffffffffff1673ffffffffffffffffffffffffffffffffffffffff1673ffffffffffffffffffffffffffffffffffffffff16815250509050600d600082608001518152602001908152602001600020600101600081548110610982576109816131fe565b5b9060005260206000200154915050919050565b60075434101580156109a957506008543411155b6109e8576040517f08c379a00000000000000000000000000000000000000000000000000000000081526004016109df9061329f565b60405180910390fd5b813414610a2a576040517f08c379a0000000000000000000000000000000000000000000000000000000008152600401610a219061330b565b60405180910390fd5b60008160ff1610158015610a42575060028160ff1611155b610a81576040517f08c379a0000000000000000000000000000000000000000000000000000000008152600401610a7890613377565b60405180910390fd5b600282610a8e91906133c6565b4711610acf576040517f08c379a0000000000000000000000000000000000000000000000000000000008152600401610ac69061347a565b60405180910390fd5b6000600160009054906101000a900473ffffffffffffffffffffffffffffffffffffffff1673ffffffffffffffffffffffffffffffffffffffff16635d3b1d306003546004600a9054906101000a900467ffffffffffffffff1660048054906101000a900461ffff16600460009054906101000a900463ffffffff16600460069054906101000a900463ffffffff166040518663ffffffff1660e01b8152600401610b7e9594939291906134d5565b6020604051808303816000875af1158015610b9d573d6000803e3d6000fd5b505050506040513d601f19601f82011682018060405250810190610bc1919061353d565b90506040518060800160405280600015158152602001600115158152602001600067ffffffffffffffff811115610bfb57610bfa612af4565b5b604051908082528060200260200182016040528015610c295781602001602082028036833780820191505090505b508152602001600660149054906101000a900463ffffffff1663ffffffff16815250600d600083815260200190815260200160002060008201518160000160006101000a81548160ff02191690831515021790555060208201518160000160016101000a81548160ff0219169083151502179055506040820151816001019080519060200190610cba929190612993565b5060608201518160020160006101000a81548163ffffffff021916908363ffffffff1602179055509050507f768be44e21ebf717fc0ca0fa198dac2df2f3fc40b702bcc93e2a7f140a9fa8808333600660149054906101000a900463ffffffff16604051610d2a9392919061356a565b60405180910390a16040518060e001604052803373ffffffffffffffffffffffffffffffffffffffff168152602001600060ff1681526020018360ff168152602001348152602001828152602001600115158152602001600073ffffffffffffffffffffffffffffffffffffffff16815250600e6000600660149054906101000a900463ffffffff1663ffffffff16815260200190815260200160002060008201518160000160006101000a81548173ffffffffffffffffffffffffffffffffffffffff021916908373ffffffffffffffffffffffffffffffffffffffff16021790555060208201518160000160146101000a81548160ff021916908360ff16021790555060408201518160000160156101000a81548160ff021916908360ff160217905550606082015181600101556080820151816002015560a08201518160030160006101000a81548160ff02191690831515021790555060c08201518160030160016101000a81548173ffffffffffffffffffffffffffffffffffffffff021916908373ffffffffffffffffffffffffffffffffffffffff1602179055509050506006601481819054906101000a900463ffffffff1680929190610ef0906135a1565b91906101000a81548163ffffffff021916908363ffffffff16021790555050505050565b610f1c6120e2565b610f2660006128c7565b565b610f306120e2565b60008163ffffffff1610158015610f4e5750600a8163ffffffff1611155b610f8d576040517f08c379a0000000000000000000000000000000000000000000000000000000008152600401610f8490613619565b60405180910390fd5b80600660186101000a81548163ffffffff021916908363ffffffff16021790555050565b610fb96120e2565b600e60006001600660149054906101000a900463ffffffff16610fdc9190613639565b63ffffffff16815260200190815260200160002060030160009054906101000a900460ff1615611041576040517f08c379a0000000000000000000000000000000000000000000000000000000008152600401611038906136bd565b60405180910390fd5b3373ffffffffffffffffffffffffffffffffffffffff166108fc479081150290604051600060405180830381858888f19350505050158015611087573d6000803e3d6000fd5b50600560009054906101000a900473ffffffffffffffffffffffffffffffffffffffff1673ffffffffffffffffffffffffffffffffffffffff1663a9059cbb33600560009054906101000a900473ffffffffffffffffffffffffffffffffffffffff1673ffffffffffffffffffffffffffffffffffffffff166370a08231306040518263ffffffff1660e01b81526004016111229190612e46565b602060405180830381865afa15801561113f573d6000803e3d6000fd5b505050506040513d601f19601f82011682018060405250810190611163919061353d565b6040518363ffffffff1660e01b81526004016111809291906136dd565b6020604051808303816000875af115801561119f573d6000803e3d6000fd5b505050506040513d601f19601f820116820180604052508101906111c39190613732565b50565b60008060009054906101000a900473ffffffffffffffffffffffffffffffffffffffff16905090565b600560009054906101000a900473ffffffffffffffffffffffffffffffffffffffff1673ffffffffffffffffffffffffffffffffffffffff166323b872dd3330856040518463ffffffff1660e01b815260040161124e9392919061375f565b6020604051808303816000875af115801561126d573d6000803e3d6000fd5b505050506040513d601f19601f820116820180604052508101906112919190613732565b6112d0576040517f08c379a00000000000000000000000000000000000000000000000000000000081526004016112c790613808565b60405180910390fd5b600a5482101580156112e45750600b548211155b611323576040517f08c379a000000000000000000000000000000000000000000000000000000000815260040161131a9061329f565b60405180910390fd5b60008160ff161015801561133b575060028160ff1611155b61137a576040517f08c379a000000000000000000000000000000000000000000000000000000000815260040161137190613377565b60405180910390fd5b60028261138791906133c6565b600560009054906101000a900473ffffffffffffffffffffffffffffffffffffffff1673ffffffffffffffffffffffffffffffffffffffff166370a08231306040518263ffffffff1660e01b81526004016113e29190612e46565b602060405180830381865afa1580156113ff573d6000803e3d6000fd5b505050506040513d601f19601f82011682018060405250810190611423919061353d565b11611463576040517f08c379a000000000000000000000000000000000000000000000000000000000815260040161145a9061347a565b60405180910390fd5b6000600160009054906101000a900473ffffffffffffffffffffffffffffffffffffffff1673ffffffffffffffffffffffffffffffffffffffff16635d3b1d306003546004600a9054906101000a900467ffffffffffffffff1660048054906101000a900461ffff16600460009054906101000a900463ffffffff16600460069054906101000a900463ffffffff166040518663ffffffff1660e01b81526004016115129594939291906134d5565b6020604051808303816000875af1158015611531573d6000803e3d6000fd5b505050506040513d601f19601f82011682018060405250810190611555919061353d565b90506040518060800160405280600015158152602001600115158152602001600067ffffffffffffffff81111561158f5761158e612af4565b5b6040519080825280602002602001820160405280156115bd5781602001602082028036833780820191505090505b508152602001600660149054906101000a900463ffffffff1663ffffffff16815250600d600083815260200190815260200160002060008201518160000160006101000a81548160ff02191690831515021790555060208201518160000160016101000a81548160ff021916908315150217905550604082015181600101908051906020019061164e929190612993565b5060608201518160020160006101000a81548163ffffffff021916908363ffffffff1602179055509050507f768be44e21ebf717fc0ca0fa198dac2df2f3fc40b702bcc93e2a7f140a9fa8808333600660149054906101000a900463ffffffff166040516116be9392919061356a565b60405180910390a16040518060e001604052803373ffffffffffffffffffffffffffffffffffffffff168152602001600160ff1681526020018360ff168152602001848152602001828152602001600115158152602001600073ffffffffffffffffffffffffffffffffffffffff16815250600e6000600660149054906101000a900463ffffffff1663ffffffff16815260200190815260200160002060008201518160000160006101000a81548173ffffffffffffffffffffffffffffffffffffffff021916908373ffffffffffffffffffffffffffffffffffffffff16021790555060208201518160000160146101000a81548160ff021916908360ff16021790555060408201518160000160156101000a81548160ff021916908360ff160217905550606082015181600101556080820151816002015560a08201518160030160006101000a81548160ff02191690831515021790555060c08201518160030160016101000a81548173ffffffffffffffffffffffffffffffffffffffff021916908373ffffffffffffffffffffffffffffffffffffffff1602179055509050506006601481819054906101000a900463ffffffff1680929190611884906135a1565b91906101000a81548163ffffffff021916908363ffffffff16021790555050505050565b600660009054906101000a900473ffffffffffffffffffffffffffffffffffffffff1681565b6118d66120e2565b600560009054906101000a900473ffffffffffffffffffffffffffffffffffffffff1673ffffffffffffffffffffffffffffffffffffffff1663a9059cbb33600c546040518363ffffffff1660e01b81526004016119359291906136dd565b6020604051808303816000875af1158015611954573d6000803e3d6000fd5b505050506040513d601f19601f820116820180604052508101906119789190613732565b6119b7576040517f08c379a00000000000000000000000000000000000000000000000000000000081526004016119ae90613874565b60405180910390fd5b600c54600c60008282546119cb9190613894565b92505081905550565b600d6020528060005260406000206000915090508060000160009054906101000a900460ff16908060000160019054906101000a900460ff16908060020160009054906101000a900463ffffffff16905083565b600660189054906101000a900463ffffffff1681565b600e6020528060005260406000206000915090508060000160009054906101000a900473ffffffffffffffffffffffffffffffffffffffff16908060000160149054906101000a900460ff16908060000160159054906101000a900460ff16908060010154908060020154908060030160009054906101000a900460ff16908060030160019054906101000a900473ffffffffffffffffffffffffffffffffffffffff16905087565b60003411611b2a576040517f08c379a0000000000000000000000000000000000000000000000000000000008152600401611b219061393a565b60405180910390fd5b565b60006060600d600084815260200190815260200160002060000160019054906101000a900460ff16611b93576040517f08c379a0000000000000000000000000000000000000000000000000000000008152600401611b8a906139a6565b60405180910390fd5b6000600d60008581526020019081526020016000206040518060800160405290816000820160009054906101000a900460ff161515151581526020016000820160019054906101000a900460ff1615151515815260200160018201805480602002602001604051908101604052809291908181526020018280548015611c3857602002820191906000526020600020905b815481526020019060010190808311611c24575b505050505081526020016002820160009054906101000a900463ffffffff1663ffffffff1663ffffffff16815250509050806000015181604001519250925050915091565b600660149054906101000a900463ffffffff1681565b60075481565b611ca16120e2565b80600460006101000a81548163ffffffff021916908363ffffffff16021790555050565b611ccd6120e2565b3373ffffffffffffffffffffffffffffffffffffffff166108fc6009549081150290604051600060405180830381858888f19350505050158015611d15573d6000803e3d6000fd5b5060095460096000828254611d2a9190613894565b92505081905550565b600080600660149054906101000a900463ffffffff1663ffffffff168310611d90576040517f08c379a0000000000000000000000000000000000000000000000000000000008152600401611d8790613172565b60405180910390fd5b600e600084815260200190815260200160002060030160009054906101000a900460ff1615611df4576040517f08c379a0000000000000000000000000000000000000000000000000000000008152600401611deb906131de565b60405180910390fd5b6000600e60008581526020019081526020016000206040518060e00160405290816000820160009054906101000a900473ffffffffffffffffffffffffffffffffffffffff1673ffffffffffffffffffffffffffffffffffffffff1673ffffffffffffffffffffffffffffffffffffffff1681526020016000820160149054906101000a900460ff1660ff1660ff1681526020016000820160159054906101000a900460ff1660ff1660ff16815260200160018201548152602001600282015481526020016003820160009054906101000a900460ff161515151581526020016003820160019054906101000a900473ffffffffffffffffffffffffffffffffffffffff1673ffffffffffffffffffffffffffffffffffffffff1673ffffffffffffffffffffffffffffffffffffffff168152505090506000600d6000600e60008881526020019081526020016000206002015481526020019081526020016000206040518060800160405290816000820160009054906101000a900460ff161515151581526020016000820160019054906101000a900460ff1615151515815260200160018201805480602002602001604051908101604052809291908181526020018280548015611fe657602002820191906000526020600020905b815481526020019060010190808311611fd2575b505050505081526020016002820160009054906101000a900463ffffffff1663ffffffff1663ffffffff16815250509050816040015160038260400151600081518110612036576120356131fe565b5b602002602001015161204891906139f5565b935093505050915091565b61205b6120e2565b600073ffffffffffffffffffffffffffffffffffffffff168173ffffffffffffffffffffffffffffffffffffffff16036120ca576040517f08c379a00000000000000000000000000000000000000000000000000000000081526004016120c190613a98565b60405180910390fd5b6120d3816128c7565b50565b600b5481565b60085481565b6120ea61298b565b73ffffffffffffffffffffffffffffffffffffffff166121086111c6565b73ffffffffffffffffffffffffffffffffffffffff161461215e576040517f08c379a000000000000000000000000000000000000000000000000000000000815260040161215590613b04565b60405180910390fd5b565b600d600083815260200190815260200160002060000160019054906101000a900460ff166121c3576040517f08c379a00000000000000000000000000000000000000000000000000000000081526004016121ba906139a6565b60405180910390fd5b6001600d600084815260200190815260200160002060000160006101000a81548160ff02191690831515021790555080600d6000848152602001908152602001600020600101908051906020019061221c929190612993565b506000600d600084815260200190815260200160002060020160009054906101000a900463ffffffff1690506000600e60008363ffffffff1681526020019081526020016000206040518060e00160405290816000820160009054906101000a900473ffffffffffffffffffffffffffffffffffffffff1673ffffffffffffffffffffffffffffffffffffffff1673ffffffffffffffffffffffffffffffffffffffff1681526020016000820160149054906101000a900460ff1660ff1660ff1681526020016000820160159054906101000a900460ff1660ff1660ff16815260200160018201548152602001600282015481526020016003820160009054906101000a900460ff161515151581526020016003820160019054906101000a900473ffffffffffffffffffffffffffffffffffffffff1673ffffffffffffffffffffffffffffffffffffffff1673ffffffffffffffffffffffffffffffffffffffff168152505090506000600660189054906101000a900463ffffffff1663ffffffff16606483606001516123b19190613b24565b6123bb91906133c6565b905060006003856000815181106123d5576123d46131fe565b5b60200260200101516123e791906139f5565b905060008360400151905060008385606001516124049190613894565b90506000846002876060015161241a91906133c6565b6124249190613894565b905060008460ff1614801561243c575060018360ff16145b80612459575060018460ff16148015612458575060028360ff16145b5b80612476575060028460ff16148015612475575060008360ff16145b5b156124f357308660c0019073ffffffffffffffffffffffffffffffffffffffff16908173ffffffffffffffffffffffffffffffffffffffff16815250507f0a0620f18e280bce682e24c8a5e48cc76d6fc1fcc4e4f6ef491177db8813c1468230896040516124e69392919061356a565b60405180910390a1612841565b8260ff168460ff1603612659576000866020015160ff160361255f57856000015173ffffffffffffffffffffffffffffffffffffffff166108fc839081150290604051600060405180830381858888f19350505050158015612559573d6000803e3d6000fd5b50612615565b6001866020015160ff160361261457600560009054906101000a900473ffffffffffffffffffffffffffffffffffffffff1673ffffffffffffffffffffffffffffffffffffffff1663a9059cbb8760000151846040518363ffffffff1660e01b81526004016125cf929190613bb4565b6020604051808303816000875af11580156125ee573d6000803e3d6000fd5b505050506040513d601f19601f820116820180604052508101906126129190613732565b505b5b7f0a0620f18e280bce682e24c8a5e48cc76d6fc1fcc4e4f6ef491177db8813c146828760c001518960405161264c9392919061356a565b60405180910390a1612840565b60008460ff1614801561266f575060028360ff16145b8061268c575060018460ff1614801561268b575060008360ff16145b5b806126a9575060028460ff161480156126a8575060018360ff16145b5b1561283f5785600001518660c0019073ffffffffffffffffffffffffffffffffffffffff16908173ffffffffffffffffffffffffffffffffffffffff16815250506000866020015160ff160361274957856000015173ffffffffffffffffffffffffffffffffffffffff166108fc829081150290604051600060405180830381858888f19350505050158015612743573d6000803e3d6000fd5b506127ff565b6001866020015160ff16036127fe57600560009054906101000a900473ffffffffffffffffffffffffffffffffffffffff1673ffffffffffffffffffffffffffffffffffffffff1663a9059cbb8760c00151836040518363ffffffff1660e01b81526004016127b99291906136dd565b6020604051808303816000875af11580156127d8573d6000803e3d6000fd5b505050506040513d601f19601f820116820180604052508101906127fc9190613732565b505b5b7f0a0620f18e280bce682e24c8a5e48cc76d6fc1fcc4e4f6ef491177db8813c146818760c00151896040516128369392919061356a565b60405180910390a15b5b5b6000600e60008963ffffffff16815260200190815260200160002060030160006101000a81548160ff0219169083151502179055506000866020015160ff16146128a25784600c60008282546128979190613bdd565b9250508190556128bb565b84600960008282546128b49190613bdd565b9250508190555b50505050505050505050565b60008060009054906101000a900473ffffffffffffffffffffffffffffffffffffffff169050816000806101000a81548173ffffffffffffffffffffffffffffffffffffffff021916908373ffffffffffffffffffffffffffffffffffffffff1602179055508173ffffffffffffffffffffffffffffffffffffffff168173ffffffffffffffffffffffffffffffffffffffff167f8be0079c531659141344cd1fd0a4f28419497f9722a3daafe3b4186f6b6457e060405160405180910390a35050565b600033905090565b8280548282559060005260206000209081019282156129cf579160200282015b828111156129ce5782518255916020019190600101906129b3565b5b5090506129dc91906129e0565b5090565b5b808211156129f95760008160009055506001016129e1565b5090565b6000819050919050565b612a10816129fd565b82525050565b6000602082019050612a2b6000830184612a07565b92915050565b6000604051905090565b600080fd5b600080fd5b600067ffffffffffffffff82169050919050565b612a6281612a45565b8114612a6d57600080fd5b50565b600081359050612a7f81612a59565b92915050565b600060208284031215612a9b57612a9a612a3b565b5b6000612aa984828501612a70565b91505092915050565b612abb816129fd565b8114612ac657600080fd5b50565b600081359050612ad881612ab2565b92915050565b600080fd5b6000601f19601f8301169050919050565b7f4e487b7100000000000000000000000000000000000000000000000000000000600052604160045260246000fd5b612b2c82612ae3565b810181811067ffffffffffffffff82111715612b4b57612b4a612af4565b5b80604052505050565b6000612b5e612a31565b9050612b6a8282612b23565b919050565b600067ffffffffffffffff821115612b8a57612b89612af4565b5b602082029050602081019050919050565b600080fd5b6000612bb3612bae84612b6f565b612b54565b90508083825260208201905060208402830185811115612bd657612bd5612b9b565b5b835b81811015612bff5780612beb8882612ac9565b845260208401935050602081019050612bd8565b5050509392505050565b600082601f830112612c1e57612c1d612ade565b5b8135612c2e848260208601612ba0565b91505092915050565b60008060408385031215612c4e57612c4d612a3b565b5b6000612c5c85828601612ac9565b925050602083013567ffffffffffffffff811115612c7d57612c7c612a40565b5b612c8985828601612c09565b9150509250929050565b6000819050919050565b612ca681612c93565b8114612cb157600080fd5b50565b600081359050612cc381612c9d565b92915050565b600060208284031215612cdf57612cde612a3b565b5b6000612ced84828501612cb4565b91505092915050565b600060208284031215612d0c57612d0b612a3b565b5b6000612d1a84828501612ac9565b91505092915050565b600060ff82169050919050565b612d3981612d23565b8114612d4457600080fd5b50565b600081359050612d5681612d30565b92915050565b60008060408385031215612d7357612d72612a3b565b5b6000612d8185828601612ac9565b9250506020612d9285828601612d47565b9150509250929050565b600063ffffffff82169050919050565b612db581612d9c565b8114612dc057600080fd5b50565b600081359050612dd281612dac565b92915050565b600060208284031215612dee57612ded612a3b565b5b6000612dfc84828501612dc3565b91505092915050565b600073ffffffffffffffffffffffffffffffffffffffff82169050919050565b6000612e3082612e05565b9050919050565b612e4081612e25565b82525050565b6000602082019050612e5b6000830184612e37565b92915050565b60008115159050919050565b612e7681612e61565b82525050565b612e8581612d9c565b82525050565b6000606082019050612ea06000830186612e6d565b612ead6020830185612e6d565b612eba6040830184612e7c565b949350505050565b6000602082019050612ed76000830184612e7c565b92915050565b6000612ee882612e05565b9050919050565b612ef881612edd565b82525050565b612f0781612d23565b82525050565b600060e082019050612f22600083018a612eef565b612f2f6020830189612efe565b612f3c6040830188612efe565b612f496060830187612a07565b612f566080830186612a07565b612f6360a0830185612e6d565b612f7060c0830184612e37565b98975050505050505050565b600081519050919050565b600082825260208201905092915050565b6000819050602082019050919050565b612fb1816129fd565b82525050565b6000612fc38383612fa8565b60208301905092915050565b6000602082019050919050565b6000612fe782612f7c565b612ff18185612f87565b9350612ffc83612f98565b8060005b8381101561302d5781516130148882612fb7565b975061301f83612fcf565b925050600181019050613000565b5085935050505092915050565b600060408201905061304f6000830185612e6d565b81810360208301526130618184612fdc565b90509392505050565b600060408201905061307f6000830185612efe565b61308c6020830184612efe565b9392505050565b61309c81612e25565b81146130a757600080fd5b50565b6000813590506130b981613093565b92915050565b6000602082840312156130d5576130d4612a3b565b5b60006130e3848285016130aa565b91505092915050565b60006040820190506131016000830185612e37565b61310e6020830184612e37565b9392505050565b600082825260208201905092915050565b7f6e756d6265722067616d65206e6f7420666f756e640000000000000000000000600082015250565b600061315c601583613115565b915061316782613126565b602082019050919050565b6000602082019050818103600083015261318b8161314f565b9050919050565b7f67616d65206973206e6f7420656e640000000000000000000000000000000000600082015250565b60006131c8600f83613115565b91506131d382613192565b602082019050919050565b600060208201905081810360008301526131f7816131bb565b9050919050565b7f4e487b7100000000000000000000000000000000000000000000000000000000600052603260045260246000fd5b7f616d6f756e7420626574203c206d696e696e616c20626574206f72203e206d6160008201527f78696d616c206265740000000000000000000000000000000000000000000000602082015250565b6000613289602983613115565b91506132948261322d565b604082019050919050565b600060208201905081810360008301526132b88161327c565b9050919050565b7f76616c756520213d20616d6f756e742062657400000000000000000000000000600082015250565b60006132f5601383613115565b9150613300826132bf565b602082019050919050565b60006020820190508181036000830152613324816132e8565b9050919050565b7f70726f7065727479206572726f72000000000000000000000000000000000000600082015250565b6000613361600e83613115565b915061336c8261332b565b602082019050919050565b6000602082019050818103600083015261339081613354565b9050919050565b7f4e487b7100000000000000000000000000000000000000000000000000000000600052601160045260246000fd5b60006133d1826129fd565b91506133dc836129fd565b92508282026133ea816129fd565b9150828204841483151761340157613400613397565b5b5092915050565b7f62616c616e6365206f662074686520636f6e7472616374206973206e6f74206560008201527f6e6f756768000000000000000000000000000000000000000000000000000000602082015250565b6000613464602583613115565b915061346f82613408565b604082019050919050565b6000602082019050818103600083015261349381613457565b9050919050565b6134a381612c93565b82525050565b6134b281612a45565b82525050565b600061ffff82169050919050565b6134cf816134b8565b82525050565b600060a0820190506134ea600083018861349a565b6134f760208301876134a9565b61350460408301866134c6565b6135116060830185612e7c565b61351e6080830184612e7c565b9695505050505050565b60008151905061353781612ab2565b92915050565b60006020828403121561355357613552612a3b565b5b600061356184828501613528565b91505092915050565b600060608201905061357f6000830186612a07565b61358c6020830185612e37565b6135996040830184612e7c565b949350505050565b60006135ac82612d9c565b915063ffffffff82036135c2576135c1613397565b5b600182019050919050565b7f666565203c2030206f72203e2031300000000000000000000000000000000000600082015250565b6000613603600f83613115565b915061360e826135cd565b602082019050919050565b60006020820190508181036000830152613632816135f6565b9050919050565b600061364482612d9c565b915061364f83612d9c565b9250828203905063ffffffff81111561366b5761366a613397565b5b92915050565b7f746865206c6173742067616d65206973206e6f74206f76657200000000000000600082015250565b60006136a7601983613115565b91506136b282613671565b602082019050919050565b600060208201905081810360008301526136d68161369a565b9050919050565b60006040820190506136f26000830185612e37565b6136ff6020830184612a07565b9392505050565b61370f81612e61565b811461371a57600080fd5b50565b60008151905061372c81613706565b92915050565b60006020828403121561374857613747612a3b565b5b60006137568482850161371d565b91505092915050565b60006060820190506137746000830186612e37565b6137816020830185612e37565b61378e6040830184612a07565b949350505050565b7f4661696c656420746f207472616e7366657220746f6b656e7320746f20636f6e60008201527f7472616374000000000000000000000000000000000000000000000000000000602082015250565b60006137f2602583613115565b91506137fd82613796565b604082019050919050565b60006020820190508181036000830152613821816137e5565b9050919050565b7f4661696c656420746f207472616e7366657220746f6b656e7300000000000000600082015250565b600061385e601983613115565b915061386982613828565b602082019050919050565b6000602082019050818103600083015261388d81613851565b9050919050565b600061389f826129fd565b91506138aa836129fd565b92508282039050818111156138c2576138c1613397565b5b92915050565b7f6465706f73697420616d6f756e74206d7573742062652067726561746572207460008201527f68616e2030000000000000000000000000000000000000000000000000000000602082015250565b6000613924602583613115565b915061392f826138c8565b604082019050919050565b6000602082019050818103600083015261395381613917565b9050919050565b7f72657175657374206e6f7420666f756e64000000000000000000000000000000600082015250565b6000613990601183613115565b915061399b8261395a565b602082019050919050565b600060208201905081810360008301526139bf81613983565b9050919050565b7f4e487b7100000000000000000000000000000000000000000000000000000000600052601260045260246000fd5b6000613a00826129fd565b9150613a0b836129fd565b925082613a1b57613a1a6139c6565b5b828206905092915050565b7f4f776e61626c653a206e6577206f776e657220697320746865207a65726f206160008201527f6464726573730000000000000000000000000000000000000000000000000000602082015250565b6000613a82602683613115565b9150613a8d82613a26565b604082019050919050565b60006020820190508181036000830152613ab181613a75565b9050919050565b7f4f776e61626c653a2063616c6c6572206973206e6f7420746865206f776e6572600082015250565b6000613aee602083613115565b9150613af982613ab8565b602082019050919050565b60006020820190508181036000830152613b1d81613ae1565b9050919050565b6000613b2f826129fd565b9150613b3a836129fd565b925082613b4a57613b496139c6565b5b828204905092915050565b6000819050919050565b6000613b7a613b75613b7084612e05565b613b55565b612e05565b9050919050565b6000613b8c82613b5f565b9050919050565b6000613b9e82613b81565b9050919050565b613bae81613b93565b82525050565b6000604082019050613bc96000830185613ba5565b613bd66020830184612a07565b9392505050565b6000613be8826129fd565b9150613bf3836129fd565b9250828201905080821115613c0b57613c0a613397565b5b9291505056fea26469706673582212205f689ec80b764fae31d88634470119dc1ef965d078d50f4cf03c57af982d00c264736f6c63430008110033",
  "linkReferences": {},
  "deployedLinkReferences": {}
}