{
  "_format": "hh-sol-artifact-1",
  "contractName": "RSPGame",
  "sourceName": "contracts/RSPgame.sol",
  "abi": [
    {
      "inputs": [],
      "stateMutability": "nonpayable",
      "type": "constructor"
    },
    {
      "inputs": [
        {
          "internalType": "address",
          "name": "have",
          "type": "address"
        },
        {
          "internalType": "address",
          "name": "want",
          "type": "address"
        }
      ],
      "name": "OnlyCoordinatorCanFulfill",
      "type": "error"
    },
    {
      "anonymous": false,
      "inputs": [
        {
          "indexed": true,
          "internalType": "address",
          "name": "previousOwner",
          "type": "address"
        },
        {
          "indexed": true,
          "internalType": "address",
          "name": "newOwner",
          "type": "address"
        }
      ],
      "name": "OwnershipTransferred",
      "type": "event"
    },
    {
      "anonymous": false,
      "inputs": [
        {
          "indexed": false,
          "internalType": "uint256",
          "name": "amountBet",
          "type": "uint256"
        },
        {
          "indexed": false,
          "internalType": "address",
          "name": "player",
          "type": "address"
        },
        {
          "indexed": false,
          "internalType": "uint32",
          "name": "numberGame",
          "type": "uint32"
        }
      ],
      "name": "newGame",
      "type": "event"
    },
    {
      "anonymous": false,
      "inputs": [
        {
          "indexed": false,
          "internalType": "uint256",
          "name": "amountWin",
          "type": "uint256"
        },
        {
          "indexed": false,
          "internalType": "address",
          "name": "winnerAddress",
          "type": "address"
        },
        {
          "indexed": false,
          "internalType": "uint32",
          "name": "numberGame",
          "type": "uint32"
        }
      ],
      "name": "newWin",
      "type": "event"
    },
    {
      "inputs": [],
      "name": "amountFee",
      "outputs": [
        {
          "internalType": "uint256",
          "name": "",
          "type": "uint256"
        }
      ],
      "stateMutability": "view",
      "type": "function"
    },
    {
      "inputs": [],
      "name": "amountFeeToken",
      "outputs": [
        {
          "internalType": "uint256",
          "name": "",
          "type": "uint256"
        }
      ],
      "stateMutability": "view",
      "type": "function"
    },
    {
      "inputs": [
        {
          "internalType": "uint32",
          "name": "_callbackGasLimit",
          "type": "uint32"
        }
      ],
      "name": "changeCallbackGasLimit",
      "outputs": [],
      "stateMutability": "nonpayable",
      "type": "function"
    },
    {
      "inputs": [
        {
          "internalType": "uint32",
          "name": "_feeGame",
          "type": "uint32"
        }
      ],
      "name": "changeFee",
      "outputs": [],
      "stateMutability": "nonpayable",
      "type": "function"
    },
    {
      "inputs": [
        {
          "internalType": "bytes32",
          "name": "_keyHash",
          "type": "bytes32"
        }
      ],
      "name": "changeKeyHash",
      "outputs": [],
      "stateMutability": "nonpayable",
      "type": "function"
    },
    {
      "inputs": [
        {
          "internalType": "uint64",
          "name": "_subscriptionId",
          "type": "uint64"
        }
      ],
      "name": "changeSubscriptionId",
      "outputs": [],
      "stateMutability": "nonpayable",
      "type": "function"
    },
    {
      "inputs": [
        {
          "internalType": "uint256",
          "name": "amountBet",
          "type": "uint256"
        },
        {
          "internalType": "uint8",
          "name": "userProperty",
          "type": "uint8"
        }
      ],
      "name": "createGame",
      "outputs": [],
      "stateMutability": "payable",
      "type": "function"
    },
    {
      "inputs": [
        {
          "internalType": "uint256",
          "name": "amountBet",
          "type": "uint256"
        },
        {
          "internalType": "uint8",
          "name": "userProperty",
          "type": "uint8"
        }
      ],
      "name": "createTokenGame",
      "outputs": [],
      "stateMutability": "nonpayable",
      "type": "function"
    },
    {
      "inputs": [],
      "name": "deposit",
      "outputs": [],
      "stateMutability": "payable",
      "type": "function"
    },
    {
      "inputs": [],
      "name": "feeGame",
      "outputs": [
        {
          "internalType": "uint32",
          "name": "",
          "type": "uint32"
        }
      ],
      "stateMutability": "view",
      "type": "function"
    },
    {
      "inputs": [],
      "name": "gameNumber",
      "outputs": [
        {
          "internalType": "uint32",
          "name": "",
          "type": "uint32"
        }
      ],
      "stateMutability": "view",
      "type": "function"
    },
    {
      "inputs": [
        {
          "internalType": "uint256",
          "name": "_gameNumber",
          "type": "uint256"
        }
      ],
      "name": "getGameResult",
      "outputs": [
        {
          "internalType": "uint8",
          "name": "userProperty",
          "type": "uint8"
        },
        {
          "internalType": "uint8",
          "name": "oracleProperty",
          "type": "uint8"
        }
      ],
      "stateMutability": "view",
      "type": "function"
    },
    {
      "inputs": [
        {
          "internalType": "uint256",
          "name": "_gameNumber",
          "type": "uint256"
        }
      ],
      "name": "getOracleNumber",
      "outputs": [
        {
          "internalType": "uint256",
          "name": "oracleNumber",
          "type": "uint256"
        }
      ],
      "stateMutability": "view",
      "type": "function"
    },
    {
      "inputs": [
        {
          "internalType": "uint256",
          "name": "_requestId",
          "type": "uint256"
        }
      ],
      "name": "getRequestStatus",
      "outputs": [
        {
          "internalType": "bool",
          "name": "fulfilled",
          "type": "bool"
        },
        {
          "internalType": "uint256[]",
          "name": "randomWords",
          "type": "uint256[]"
        }
      ],
      "stateMutability": "view",
      "type": "function"
    },
    {
      "inputs": [],
      "name": "maxAmountBet",
      "outputs": [
        {
          "internalType": "uint256",
          "name": "",
          "type": "uint256"
        }
      ],
      "stateMutability": "view",
      "type": "function"
    },
    {
      "inputs": [],
      "name": "maxAmountTokenBet",
      "outputs": [
        {
          "internalType": "uint256",
          "name": "",
          "type": "uint256"
        }
      ],
      "stateMutability": "view",
      "type": "function"
    },
    {
      "inputs": [],
      "name": "minAmountBet",
      "outputs": [
        {
          "internalType": "uint256",
          "name": "",
          "type": "uint256"
        }
      ],
      "stateMutability": "view",
      "type": "function"
    },
    {
      "inputs": [],
      "name": "minAmountTokenBet",
      "outputs": [
        {
          "internalType": "uint256",
          "name": "",
          "type": "uint256"
        }
      ],
      "stateMutability": "view",
      "type": "function"
    },
    {
      "inputs": [],
      "name": "owner",
      "outputs": [
        {
          "internalType": "address",
          "name": "",
          "type": "address"
        }
      ],
      "stateMutability": "view",
      "type": "function"
    },
    {
      "inputs": [
        {
          "internalType": "uint256",
          "name": "requestId",
          "type": "uint256"
        },
        {
          "internalType": "uint256[]",
          "name": "randomWords",
          "type": "uint256[]"
        }
      ],
      "name": "rawFulfillRandomWords",
      "outputs": [],
      "stateMutability": "nonpayable",
      "type": "function"
    },
    {
      "inputs": [],
      "name": "renounceOwnership",
      "outputs": [],
      "stateMutability": "nonpayable",
      "type": "function"
    },
    {
      "inputs": [
        {
          "internalType": "uint256",
          "name": "",
          "type": "uint256"
        }
      ],
      "name": "s_games",
      "outputs": [
        {
          "internalType": "address payable",
          "name": "player",
          "type": "address"
        },
        {
          "internalType": "uint8",
          "name": "gameType",
          "type": "uint8"
        },
        {
          "internalType": "uint8",
          "name": "userProperty",
          "type": "uint8"
        },
        {
          "internalType": "uint256",
          "name": "amountBet",
          "type": "uint256"
        },
        {
          "internalType": "uint256",
          "name": "requestId",
          "type": "uint256"
        },
        {
          "internalType": "bool",
          "name": "isLive",
          "type": "bool"
        },
        {
          "internalType": "address",
          "name": "winner",
          "type": "address"
        }
      ],
      "stateMutability": "view",
      "type": "function"
    },
    {
      "inputs": [
        {
          "internalType": "uint256",
          "name": "",
          "type": "uint256"
        }
      ],
      "name": "s_requests",
      "outputs": [
        {
          "internalType": "bool",
          "name": "fulfilled",
          "type": "bool"
        },
        {
          "internalType": "bool",
          "name": "exists",
          "type": "bool"
        },
        {
          "internalType": "uint32",
          "name": "numberGame",
          "type": "uint32"
        }
      ],
      "stateMutability": "view",
      "type": "function"
    },
    {
      "inputs": [],
      "name": "tokenAddress",
      "outputs": [
        {
          "internalType": "address",
          "name": "",
          "type": "address"
        }
      ],
      "stateMutability": "view",
      "type": "function"
    },
    {
      "inputs": [
        {
          "internalType": "address",
          "name": "newOwner",
          "type": "address"
        }
      ],
      "name": "transferOwnership",
      "outputs": [],
      "stateMutability": "nonpayable",
      "type": "function"
    },
    {
      "inputs": [],
      "name": "withdrawAll",
      "outputs": [],
      "stateMutability": "nonpayable",
      "type": "function"
    },
    {
      "inputs": [],
      "name": "withdrawFee",
      "outputs": [],
      "stateMutability": "nonpayable",
      "type": "function"
    },
    {
      "inputs": [],
      "name": "withdrawFeeToken",
      "outputs": [],
      "stateMutability": "nonpayable",
      "type": "function"
    }
  ],
  "bytecode": "0x60a0604052736a2aad07396b36fe02a22b33cf443582f682c82f600260006101000a81548173ffffffffffffffffffffffffffffffffffffffff021916908373ffffffffffffffffffffffffffffffffffffffff1602179055507fd4bb89654db74673a187bd804519e65e3f71a52bc55f11da7601a13dcf50531460001b60035562030d40600460006101000a81548163ffffffff021916908363ffffffff16021790555060036004806101000a81548161ffff021916908361ffff1602179055506001600460066101000a81548163ffffffff021916908363ffffffff1602179055506109fd6004600a6101000a81548167ffffffffffffffff021916908367ffffffffffffffff16021790555073ed24fc36d5ee211ea25a80239fb8c4cfd80f12ee600660006101000a81548173ffffffffffffffffffffffffffffffffffffffff021916908373ffffffffffffffffffffffffffffffffffffffff1602179055506001600660146101000a81548163ffffffff021916908363ffffffff1602179055506003600660186101000a81548163ffffffff021916908363ffffffff160217905550662386f26fc10000600755670de0b6b3a764000060085567016345785d8a0000600a55678ac7230489e80000600b55348015620001e357600080fd5b50600260009054906101000a900473ffffffffffffffffffffffffffffffffffffffff168073ffffffffffffffffffffffffffffffffffffffff1660808173ffffffffffffffffffffffffffffffffffffffff1681525050506200025c620002506200032860201b60201c565b6200033060201b60201c565b600260009054906101000a900473ffffffffffffffffffffffffffffffffffffffff16600160006101000a81548173ffffffffffffffffffffffffffffffffffffffff021916908373ffffffffffffffffffffffffffffffffffffffff160217905550600660009054906101000a900473ffffffffffffffffffffffffffffffffffffffff16600560006101000a81548173ffffffffffffffffffffffffffffffffffffffff021916908373ffffffffffffffffffffffffffffffffffffffff160217905550620003f4565b600033905090565b60008060009054906101000a900473ffffffffffffffffffffffffffffffffffffffff169050816000806101000a81548173ffffffffffffffffffffffffffffffffffffffff021916908373ffffffffffffffffffffffffffffffffffffffff1602179055508173ffffffffffffffffffffffffffffffffffffffff168173ffffffffffffffffffffffffffffffffffffffff167f8be0079c531659141344cd1fd0a4f28419497f9722a3daafe3b4186f6b6457e060405160405180910390a35050565b608051613c6b620004176000396000818161068801526106dc0152613c6b6000f3fe6080604052600436106101b75760003560e01c80639dcd61f5116100ec578063d9fa30f41161008a578063ed2df26d11610064578063ed2df26d14610589578063f2fde38b146105c7578063fb60e51f146105f0578063fcbad5c21461061b576101b7565b8063d9fa30f41461051e578063e86a51cb14610549578063e941fa7814610572576101b7565b8063bcd480a5116100c6578063bcd480a514610468578063d0e30db0146104ab578063d8a4676f146104b5578063d8d40cee146104f3576101b7565b80639dcd61f5146103e7578063a168fa89146103fe578063b08c77301461043d576101b7565b80635db896b311610159578063853828b611610133578063853828b6146103515780638da5cb5b146103685780639aaa07cb146103935780639d76ea58146103bc576101b7565b80635db896b3146102f5578063715018a6146103115780638142dd5314610328576101b7565b80631fe543e3116101955780631fe543e31461023b57806323f81792146102645780632f68f4821461028f5780633f0e9174146102b8576101b7565b806312a2a2ac146101bc57806316492772146101e757806319d7a11e14610212575b600080fd5b3480156101c857600080fd5b506101d1610646565b6040516101de9190612a3a565b60405180910390f35b3480156101f357600080fd5b506101fc61064c565b6040516102099190612a3a565b60405180910390f35b34801561021e57600080fd5b5061023960048036038101906102349190612aa9565b610652565b005b34801561024757600080fd5b50610262600480360381019061025d9190612c5b565b610686565b005b34801561027057600080fd5b50610279610746565b6040516102869190612a3a565b60405180910390f35b34801561029b57600080fd5b506102b660048036038101906102b19190612ced565b61074c565b005b3480156102c457600080fd5b506102df60048036038101906102da9190612d1a565b61075e565b6040516102ec9190612a3a565b60405180910390f35b61030f600480360381019061030a9190612d80565b610995565b005b34801561031d57600080fd5b50610326610f14565b005b34801561033457600080fd5b5061034f600480360381019061034a9190612dfc565b610f28565b005b34801561035d57600080fd5b50610366610fb1565b005b34801561037457600080fd5b5061037d6111c6565b60405161038a9190612e6a565b60405180910390f35b34801561039f57600080fd5b506103ba60048036038101906103b59190612d80565b6111ef565b005b3480156103c857600080fd5b506103d16118a8565b6040516103de9190612e6a565b60405180910390f35b3480156103f357600080fd5b506103fc6118ce565b005b34801561040a57600080fd5b5061042560048036038101906104209190612d1a565b6119d4565b60405161043493929190612eaf565b60405180910390f35b34801561044957600080fd5b50610452611a28565b60405161045f9190612ee6565b60405180910390f35b34801561047457600080fd5b5061048f600480360381019061048a9190612d1a565b611a3e565b6040516104a29796959493929190612f31565b60405180910390f35b6104b3611ae7565b005b3480156104c157600080fd5b506104dc60048036038101906104d79190612d1a565b611b2c565b6040516104ea92919061305e565b60405180910390f35b3480156104ff57600080fd5b50610508611c7d565b6040516105159190612ee6565b60405180910390f35b34801561052a57600080fd5b50610533611c93565b6040516105409190612a3a565b60405180910390f35b34801561055557600080fd5b50610570600480360381019061056b9190612dfc565b611c99565b005b34801561057e57600080fd5b50610587611cc5565b005b34801561059557600080fd5b506105b060048036038101906105ab9190612d1a565b611d33565b6040516105be92919061308e565b60405180910390f35b3480156105d357600080fd5b506105ee60048036038101906105e991906130e3565b612053565b005b3480156105fc57600080fd5b506106056120d6565b6040516106129190612a3a565b60405180910390f35b34801561062757600080fd5b506106306120dc565b60405161063d9190612a3a565b60405180910390f35b600c5481565b60095481565b61065a6120e2565b806004600a6101000a81548167ffffffffffffffff021916908367ffffffffffffffff16021790555050565b7f000000000000000000000000000000000000000000000000000000000000000073ffffffffffffffffffffffffffffffffffffffff163373ffffffffffffffffffffffffffffffffffffffff161461073857337f00000000000000000000000000000000000000000000000000000000000000006040517f1cf993f400000000000000000000000000000000000000000000000000000000815260040161072f929190613110565b60405180910390fd5b6107428282612160565b5050565b600a5481565b6107546120e2565b8060038190555050565b6000600660149054906101000a900463ffffffff1663ffffffff1682106107ba576040517f08c379a00000000000000000000000000000000000000000000000000000000081526004016107b190613196565b60405180910390fd5b600e600083815260200190815260200160002060030160009054906101000a900460ff161561081e576040517f08c379a000000000000000000000000000000000000000000000000000000000815260040161081590613202565b60405180910390fd5b6000600e60008481526020019081526020016000206040518060e00160405290816000820160009054906101000a900473ffffffffffffffffffffffffffffffffffffffff1673ffffffffffffffffffffffffffffffffffffffff1673ffffffffffffffffffffffffffffffffffffffff1681526020016000820160149054906101000a900460ff1660ff1660ff1681526020016000820160159054906101000a900460ff1660ff1660ff16815260200160018201548152602001600282015481526020016003820160009054906101000a900460ff161515151581526020016003820160019054906101000a900473ffffffffffffffffffffffffffffffffffffffff1673ffffffffffffffffffffffffffffffffffffffff1673ffffffffffffffffffffffffffffffffffffffff16815250509050600d60008260800151815260200190815260200160002060010160008154811061098257610981613222565b5b9060005260206000200154915050919050565b60075434101580156109a957506008543411155b6109e8576040517f08c379a00000000000000000000000000000000000000000000000000000000081526004016109df906132c3565b60405180910390fd5b813414610a2a576040517f08c379a0000000000000000000000000000000000000000000000000000000008152600401610a219061332f565b60405180910390fd5b60008160ff1610158015610a42575060028160ff1611155b610a81576040517f08c379a0000000000000000000000000000000000000000000000000000000008152600401610a789061339b565b60405180910390fd5b600282610a8e91906133ea565b4711610acf576040517f08c379a0000000000000000000000000000000000000000000000000000000008152600401610ac69061349e565b60405180910390fd5b6000600160009054906101000a900473ffffffffffffffffffffffffffffffffffffffff1673ffffffffffffffffffffffffffffffffffffffff16635d3b1d306003546004600a9054906101000a900467ffffffffffffffff1660048054906101000a900461ffff16600460009054906101000a900463ffffffff16600460069054906101000a900463ffffffff166040518663ffffffff1660e01b8152600401610b7e9594939291906134f9565b6020604051808303816000875af1158015610b9d573d6000803e3d6000fd5b505050506040513d601f19601f82011682018060405250810190610bc19190613561565b90506040518060800160405280600015158152602001600115158152602001600067ffffffffffffffff811115610bfb57610bfa612b18565b5b604051908082528060200260200182016040528015610c295781602001602082028036833780820191505090505b508152602001600660149054906101000a900463ffffffff1663ffffffff16815250600d600083815260200190815260200160002060008201518160000160006101000a81548160ff02191690831515021790555060208201518160000160016101000a81548160ff0219169083151502179055506040820151816001019080519060200190610cba9291906129b7565b5060608201518160020160006101000a81548163ffffffff021916908363ffffffff1602179055509050507f768be44e21ebf717fc0ca0fa198dac2df2f3fc40b702bcc93e2a7f140a9fa8808333600660149054906101000a900463ffffffff16604051610d2a9392919061358e565b60405180910390a16040518060e001604052803373ffffffffffffffffffffffffffffffffffffffff168152602001600060ff1681526020018360ff168152602001348152602001828152602001600115158152602001600073ffffffffffffffffffffffffffffffffffffffff16815250600e6000600660149054906101000a900463ffffffff1663ffffffff16815260200190815260200160002060008201518160000160006101000a81548173ffffffffffffffffffffffffffffffffffffffff021916908373ffffffffffffffffffffffffffffffffffffffff16021790555060208201518160000160146101000a81548160ff021916908360ff16021790555060408201518160000160156101000a81548160ff021916908360ff160217905550606082015181600101556080820151816002015560a08201518160030160006101000a81548160ff02191690831515021790555060c08201518160030160016101000a81548173ffffffffffffffffffffffffffffffffffffffff021916908373ffffffffffffffffffffffffffffffffffffffff1602179055509050506006601481819054906101000a900463ffffffff1680929190610ef0906135c5565b91906101000a81548163ffffffff021916908363ffffffff16021790555050505050565b610f1c6120e2565b610f2660006128eb565b565b610f306120e2565b60008163ffffffff1610158015610f4e5750600a8163ffffffff1611155b610f8d576040517f08c379a0000000000000000000000000000000000000000000000000000000008152600401610f849061363d565b60405180910390fd5b80600660186101000a81548163ffffffff021916908363ffffffff16021790555050565b610fb96120e2565b600e60006001600660149054906101000a900463ffffffff16610fdc919061365d565b63ffffffff16815260200190815260200160002060030160009054906101000a900460ff1615611041576040517f08c379a0000000000000000000000000000000000000000000000000000000008152600401611038906136e1565b60405180910390fd5b3373ffffffffffffffffffffffffffffffffffffffff166108fc479081150290604051600060405180830381858888f19350505050158015611087573d6000803e3d6000fd5b50600560009054906101000a900473ffffffffffffffffffffffffffffffffffffffff1673ffffffffffffffffffffffffffffffffffffffff1663a9059cbb33600560009054906101000a900473ffffffffffffffffffffffffffffffffffffffff1673ffffffffffffffffffffffffffffffffffffffff166370a08231306040518263ffffffff1660e01b81526004016111229190612e6a565b602060405180830381865afa15801561113f573d6000803e3d6000fd5b505050506040513d601f19601f820116820180604052508101906111639190613561565b6040518363ffffffff1660e01b8152600401611180929190613701565b6020604051808303816000875af115801561119f573d6000803e3d6000fd5b505050506040513d601f19601f820116820180604052508101906111c39190613756565b50565b60008060009054906101000a900473ffffffffffffffffffffffffffffffffffffffff16905090565b600560009054906101000a900473ffffffffffffffffffffffffffffffffffffffff1673ffffffffffffffffffffffffffffffffffffffff166323b872dd3330856040518463ffffffff1660e01b815260040161124e93929190613783565b6020604051808303816000875af115801561126d573d6000803e3d6000fd5b505050506040513d601f19601f820116820180604052508101906112919190613756565b6112d0576040517f08c379a00000000000000000000000000000000000000000000000000000000081526004016112c79061382c565b60405180910390fd5b600a5482101580156112e45750600b548211155b611323576040517f08c379a000000000000000000000000000000000000000000000000000000000815260040161131a906132c3565b60405180910390fd5b60008160ff161015801561133b575060028160ff1611155b61137a576040517f08c379a00000000000000000000000000000000000000000000000000000000081526004016113719061339b565b60405180910390fd5b60028261138791906133ea565b600560009054906101000a900473ffffffffffffffffffffffffffffffffffffffff1673ffffffffffffffffffffffffffffffffffffffff166370a08231306040518263ffffffff1660e01b81526004016113e29190612e6a565b602060405180830381865afa1580156113ff573d6000803e3d6000fd5b505050506040513d601f19601f820116820180604052508101906114239190613561565b11611463576040517f08c379a000000000000000000000000000000000000000000000000000000000815260040161145a9061349e565b60405180910390fd5b6000600160009054906101000a900473ffffffffffffffffffffffffffffffffffffffff1673ffffffffffffffffffffffffffffffffffffffff16635d3b1d306003546004600a9054906101000a900467ffffffffffffffff1660048054906101000a900461ffff16600460009054906101000a900463ffffffff16600460069054906101000a900463ffffffff166040518663ffffffff1660e01b81526004016115129594939291906134f9565b6020604051808303816000875af1158015611531573d6000803e3d6000fd5b505050506040513d601f19601f820116820180604052508101906115559190613561565b90506040518060800160405280600015158152602001600115158152602001600067ffffffffffffffff81111561158f5761158e612b18565b5b6040519080825280602002602001820160405280156115bd5781602001602082028036833780820191505090505b508152602001600660149054906101000a900463ffffffff1663ffffffff16815250600d600083815260200190815260200160002060008201518160000160006101000a81548160ff02191690831515021790555060208201518160000160016101000a81548160ff021916908315150217905550604082015181600101908051906020019061164e9291906129b7565b5060608201518160020160006101000a81548163ffffffff021916908363ffffffff1602179055509050507f768be44e21ebf717fc0ca0fa198dac2df2f3fc40b702bcc93e2a7f140a9fa8808333600660149054906101000a900463ffffffff166040516116be9392919061358e565b60405180910390a16040518060e001604052803373ffffffffffffffffffffffffffffffffffffffff168152602001600160ff1681526020018360ff168152602001848152602001828152602001600115158152602001600073ffffffffffffffffffffffffffffffffffffffff16815250600e6000600660149054906101000a900463ffffffff1663ffffffff16815260200190815260200160002060008201518160000160006101000a81548173ffffffffffffffffffffffffffffffffffffffff021916908373ffffffffffffffffffffffffffffffffffffffff16021790555060208201518160000160146101000a81548160ff021916908360ff16021790555060408201518160000160156101000a81548160ff021916908360ff160217905550606082015181600101556080820151816002015560a08201518160030160006101000a81548160ff02191690831515021790555060c08201518160030160016101000a81548173ffffffffffffffffffffffffffffffffffffffff021916908373ffffffffffffffffffffffffffffffffffffffff1602179055509050506006601481819054906101000a900463ffffffff1680929190611884906135c5565b91906101000a81548163ffffffff021916908363ffffffff16021790555050505050565b600660009054906101000a900473ffffffffffffffffffffffffffffffffffffffff1681565b6118d66120e2565b600560009054906101000a900473ffffffffffffffffffffffffffffffffffffffff1673ffffffffffffffffffffffffffffffffffffffff1663a9059cbb33600c546040518363ffffffff1660e01b8152600401611935929190613701565b6020604051808303816000875af1158015611954573d6000803e3d6000fd5b505050506040513d601f19601f820116820180604052508101906119789190613756565b6119b7576040517f08c379a00000000000000000000000000000000000000000000000000000000081526004016119ae90613898565b60405180910390fd5b600c54600c60008282546119cb91906138b8565b92505081905550565b600d6020528060005260406000206000915090508060000160009054906101000a900460ff16908060000160019054906101000a900460ff16908060020160009054906101000a900463ffffffff16905083565b600660189054906101000a900463ffffffff1681565b600e6020528060005260406000206000915090508060000160009054906101000a900473ffffffffffffffffffffffffffffffffffffffff16908060000160149054906101000a900460ff16908060000160159054906101000a900460ff16908060010154908060020154908060030160009054906101000a900460ff16908060030160019054906101000a900473ffffffffffffffffffffffffffffffffffffffff16905087565b60003411611b2a576040517f08c379a0000000000000000000000000000000000000000000000000000000008152600401611b219061395e565b60405180910390fd5b565b60006060600d600084815260200190815260200160002060000160019054906101000a900460ff16611b93576040517f08c379a0000000000000000000000000000000000000000000000000000000008152600401611b8a906139ca565b60405180910390fd5b6000600d60008581526020019081526020016000206040518060800160405290816000820160009054906101000a900460ff161515151581526020016000820160019054906101000a900460ff1615151515815260200160018201805480602002602001604051908101604052809291908181526020018280548015611c3857602002820191906000526020600020905b815481526020019060010190808311611c24575b505050505081526020016002820160009054906101000a900463ffffffff1663ffffffff1663ffffffff16815250509050806000015181604001519250925050915091565b600660149054906101000a900463ffffffff1681565b60075481565b611ca16120e2565b80600460006101000a81548163ffffffff021916908363ffffffff16021790555050565b611ccd6120e2565b3373ffffffffffffffffffffffffffffffffffffffff166108fc6009549081150290604051600060405180830381858888f19350505050158015611d15573d6000803e3d6000fd5b5060095460096000828254611d2a91906138b8565b92505081905550565b600080600660149054906101000a900463ffffffff1663ffffffff168310611d90576040517f08c379a0000000000000000000000000000000000000000000000000000000008152600401611d8790613196565b60405180910390fd5b600e600084815260200190815260200160002060030160009054906101000a900460ff1615611df4576040517f08c379a0000000000000000000000000000000000000000000000000000000008152600401611deb90613202565b60405180910390fd5b6000600e60008581526020019081526020016000206040518060e00160405290816000820160009054906101000a900473ffffffffffffffffffffffffffffffffffffffff1673ffffffffffffffffffffffffffffffffffffffff1673ffffffffffffffffffffffffffffffffffffffff1681526020016000820160149054906101000a900460ff1660ff1660ff1681526020016000820160159054906101000a900460ff1660ff1660ff16815260200160018201548152602001600282015481526020016003820160009054906101000a900460ff161515151581526020016003820160019054906101000a900473ffffffffffffffffffffffffffffffffffffffff1673ffffffffffffffffffffffffffffffffffffffff1673ffffffffffffffffffffffffffffffffffffffff168152505090506000600d6000600e60008881526020019081526020016000206002015481526020019081526020016000206040518060800160405290816000820160009054906101000a900460ff161515151581526020016000820160019054906101000a900460ff1615151515815260200160018201805480602002602001604051908101604052809291908181526020018280548015611fe657602002820191906000526020600020905b815481526020019060010190808311611fd2575b505050505081526020016002820160009054906101000a900463ffffffff1663ffffffff1663ffffffff1681525050905081604001516003826040015160008151811061203657612035613222565b5b60200260200101516120489190613a19565b935093505050915091565b61205b6120e2565b600073ffffffffffffffffffffffffffffffffffffffff168173ffffffffffffffffffffffffffffffffffffffff16036120ca576040517f08c379a00000000000000000000000000000000000000000000000000000000081526004016120c190613abc565b60405180910390fd5b6120d3816128eb565b50565b600b5481565b60085481565b6120ea6129af565b73ffffffffffffffffffffffffffffffffffffffff166121086111c6565b73ffffffffffffffffffffffffffffffffffffffff161461215e576040517f08c379a000000000000000000000000000000000000000000000000000000000815260040161215590613b28565b60405180910390fd5b565b600d600083815260200190815260200160002060000160019054906101000a900460ff166121c3576040517f08c379a00000000000000000000000000000000000000000000000000000000081526004016121ba906139ca565b60405180910390fd5b6001600d600084815260200190815260200160002060000160006101000a81548160ff02191690831515021790555080600d6000848152602001908152602001600020600101908051906020019061221c9291906129b7565b506000600d600084815260200190815260200160002060020160009054906101000a900463ffffffff1690506000600e60008363ffffffff16815260200190815260200160002090506000600660189054906101000a900463ffffffff1663ffffffff16606483600101546122919190613b48565b61229b91906133ea565b905060006003856000815181106122b5576122b4613222565b5b60200260200101516122c79190613a19565b905060008360000160159054906101000a900460ff16905060008385600101546122f191906138b8565b90506000846002876001015461230791906133ea565b61231191906138b8565b905060008460ff16148015612329575060018360ff16145b80612346575060018460ff16148015612345575060028360ff16145b5b80612363575060028460ff16148015612362575060008360ff16145b5b156123eb57308660030160016101000a81548173ffffffffffffffffffffffffffffffffffffffff021916908373ffffffffffffffffffffffffffffffffffffffff1602179055507f0a0620f18e280bce682e24c8a5e48cc76d6fc1fcc4e4f6ef491177db8813c1468230896040516123de9392919061358e565b60405180910390a1612858565b8260ff168460ff16036125cb5760008660000160149054906101000a900460ff1660ff1603612484578560000160009054906101000a900473ffffffffffffffffffffffffffffffffffffffff1673ffffffffffffffffffffffffffffffffffffffff166108fc839081150290604051600060405180830381858888f1935050505015801561247e573d6000803e3d6000fd5b50612567565b60018660000160149054906101000a900460ff1660ff160361256657600560009054906101000a900473ffffffffffffffffffffffffffffffffffffffff1673ffffffffffffffffffffffffffffffffffffffff1663a9059cbb8760000160009054906101000a900473ffffffffffffffffffffffffffffffffffffffff16846040518363ffffffff1660e01b8152600401612521929190613bd8565b6020604051808303816000875af1158015612540573d6000803e3d6000fd5b505050506040513d601f19601f820116820180604052508101906125649190613756565b505b5b7f0a0620f18e280bce682e24c8a5e48cc76d6fc1fcc4e4f6ef491177db8813c146828760030160019054906101000a900473ffffffffffffffffffffffffffffffffffffffff16896040516125be9392919061358e565b60405180910390a1612857565b60008460ff161480156125e1575060028360ff16145b806125fe575060018460ff161480156125fd575060008360ff16145b5b8061261b575060028460ff1614801561261a575060018360ff16145b5b15612856578560000160009054906101000a900473ffffffffffffffffffffffffffffffffffffffff168660030160016101000a81548173ffffffffffffffffffffffffffffffffffffffff021916908373ffffffffffffffffffffffffffffffffffffffff16021790555060008660000160149054906101000a900460ff1660ff1603612713578560000160009054906101000a900473ffffffffffffffffffffffffffffffffffffffff1673ffffffffffffffffffffffffffffffffffffffff166108fc829081150290604051600060405180830381858888f1935050505015801561270d573d6000803e3d6000fd5b506127f6565b60018660000160149054906101000a900460ff1660ff16036127f557600560009054906101000a900473ffffffffffffffffffffffffffffffffffffffff1673ffffffffffffffffffffffffffffffffffffffff1663a9059cbb8760030160019054906101000a900473ffffffffffffffffffffffffffffffffffffffff16836040518363ffffffff1660e01b81526004016127b0929190613701565b6020604051808303816000875af11580156127cf573d6000803e3d6000fd5b505050506040513d601f19601f820116820180604052508101906127f39190613756565b505b5b7f0a0620f18e280bce682e24c8a5e48cc76d6fc1fcc4e4f6ef491177db8813c146818760030160019054906101000a900473ffffffffffffffffffffffffffffffffffffffff168960405161284d9392919061358e565b60405180910390a15b5b5b6000600e60008963ffffffff16815260200190815260200160002060030160006101000a81548160ff02191690831515021790555060008660000160149054906101000a900460ff1660ff16146128c65784600c60008282546128bb9190613c01565b9250508190556128df565b84600960008282546128d89190613c01565b9250508190555b50505050505050505050565b60008060009054906101000a900473ffffffffffffffffffffffffffffffffffffffff169050816000806101000a81548173ffffffffffffffffffffffffffffffffffffffff021916908373ffffffffffffffffffffffffffffffffffffffff1602179055508173ffffffffffffffffffffffffffffffffffffffff168173ffffffffffffffffffffffffffffffffffffffff167f8be0079c531659141344cd1fd0a4f28419497f9722a3daafe3b4186f6b6457e060405160405180910390a35050565b600033905090565b8280548282559060005260206000209081019282156129f3579160200282015b828111156129f25782518255916020019190600101906129d7565b5b509050612a009190612a04565b5090565b5b80821115612a1d576000816000905550600101612a05565b5090565b6000819050919050565b612a3481612a21565b82525050565b6000602082019050612a4f6000830184612a2b565b92915050565b6000604051905090565b600080fd5b600080fd5b600067ffffffffffffffff82169050919050565b612a8681612a69565b8114612a9157600080fd5b50565b600081359050612aa381612a7d565b92915050565b600060208284031215612abf57612abe612a5f565b5b6000612acd84828501612a94565b91505092915050565b612adf81612a21565b8114612aea57600080fd5b50565b600081359050612afc81612ad6565b92915050565b600080fd5b6000601f19601f8301169050919050565b7f4e487b7100000000000000000000000000000000000000000000000000000000600052604160045260246000fd5b612b5082612b07565b810181811067ffffffffffffffff82111715612b6f57612b6e612b18565b5b80604052505050565b6000612b82612a55565b9050612b8e8282612b47565b919050565b600067ffffffffffffffff821115612bae57612bad612b18565b5b602082029050602081019050919050565b600080fd5b6000612bd7612bd284612b93565b612b78565b90508083825260208201905060208402830185811115612bfa57612bf9612bbf565b5b835b81811015612c235780612c0f8882612aed565b845260208401935050602081019050612bfc565b5050509392505050565b600082601f830112612c4257612c41612b02565b5b8135612c52848260208601612bc4565b91505092915050565b60008060408385031215612c7257612c71612a5f565b5b6000612c8085828601612aed565b925050602083013567ffffffffffffffff811115612ca157612ca0612a64565b5b612cad85828601612c2d565b9150509250929050565b6000819050919050565b612cca81612cb7565b8114612cd557600080fd5b50565b600081359050612ce781612cc1565b92915050565b600060208284031215612d0357612d02612a5f565b5b6000612d1184828501612cd8565b91505092915050565b600060208284031215612d3057612d2f612a5f565b5b6000612d3e84828501612aed565b91505092915050565b600060ff82169050919050565b612d5d81612d47565b8114612d6857600080fd5b50565b600081359050612d7a81612d54565b92915050565b60008060408385031215612d9757612d96612a5f565b5b6000612da585828601612aed565b9250506020612db685828601612d6b565b9150509250929050565b600063ffffffff82169050919050565b612dd981612dc0565b8114612de457600080fd5b50565b600081359050612df681612dd0565b92915050565b600060208284031215612e1257612e11612a5f565b5b6000612e2084828501612de7565b91505092915050565b600073ffffffffffffffffffffffffffffffffffffffff82169050919050565b6000612e5482612e29565b9050919050565b612e6481612e49565b82525050565b6000602082019050612e7f6000830184612e5b565b92915050565b60008115159050919050565b612e9a81612e85565b82525050565b612ea981612dc0565b82525050565b6000606082019050612ec46000830186612e91565b612ed16020830185612e91565b612ede6040830184612ea0565b949350505050565b6000602082019050612efb6000830184612ea0565b92915050565b6000612f0c82612e29565b9050919050565b612f1c81612f01565b82525050565b612f2b81612d47565b82525050565b600060e082019050612f46600083018a612f13565b612f536020830189612f22565b612f606040830188612f22565b612f6d6060830187612a2b565b612f7a6080830186612a2b565b612f8760a0830185612e91565b612f9460c0830184612e5b565b98975050505050505050565b600081519050919050565b600082825260208201905092915050565b6000819050602082019050919050565b612fd581612a21565b82525050565b6000612fe78383612fcc565b60208301905092915050565b6000602082019050919050565b600061300b82612fa0565b6130158185612fab565b935061302083612fbc565b8060005b838110156130515781516130388882612fdb565b975061304383612ff3565b925050600181019050613024565b5085935050505092915050565b60006040820190506130736000830185612e91565b81810360208301526130858184613000565b90509392505050565b60006040820190506130a36000830185612f22565b6130b06020830184612f22565b9392505050565b6130c081612e49565b81146130cb57600080fd5b50565b6000813590506130dd816130b7565b92915050565b6000602082840312156130f9576130f8612a5f565b5b6000613107848285016130ce565b91505092915050565b60006040820190506131256000830185612e5b565b6131326020830184612e5b565b9392505050565b600082825260208201905092915050565b7f6e756d6265722067616d65206e6f7420666f756e640000000000000000000000600082015250565b6000613180601583613139565b915061318b8261314a565b602082019050919050565b600060208201905081810360008301526131af81613173565b9050919050565b7f67616d65206973206e6f7420656e640000000000000000000000000000000000600082015250565b60006131ec600f83613139565b91506131f7826131b6565b602082019050919050565b6000602082019050818103600083015261321b816131df565b9050919050565b7f4e487b7100000000000000000000000000000000000000000000000000000000600052603260045260246000fd5b7f616d6f756e7420626574203c206d696e696e616c20626574206f72203e206d6160008201527f78696d616c206265740000000000000000000000000000000000000000000000602082015250565b60006132ad602983613139565b91506132b882613251565b604082019050919050565b600060208201905081810360008301526132dc816132a0565b9050919050565b7f76616c756520213d20616d6f756e742062657400000000000000000000000000600082015250565b6000613319601383613139565b9150613324826132e3565b602082019050919050565b600060208201905081810360008301526133488161330c565b9050919050565b7f70726f7065727479206572726f72000000000000000000000000000000000000600082015250565b6000613385600e83613139565b91506133908261334f565b602082019050919050565b600060208201905081810360008301526133b481613378565b9050919050565b7f4e487b7100000000000000000000000000000000000000000000000000000000600052601160045260246000fd5b60006133f582612a21565b915061340083612a21565b925082820261340e81612a21565b91508282048414831517613425576134246133bb565b5b5092915050565b7f62616c616e6365206f662074686520636f6e7472616374206973206e6f74206560008201527f6e6f756768000000000000000000000000000000000000000000000000000000602082015250565b6000613488602583613139565b91506134938261342c565b604082019050919050565b600060208201905081810360008301526134b78161347b565b9050919050565b6134c781612cb7565b82525050565b6134d681612a69565b82525050565b600061ffff82169050919050565b6134f3816134dc565b82525050565b600060a08201905061350e60008301886134be565b61351b60208301876134cd565b61352860408301866134ea565b6135356060830185612ea0565b6135426080830184612ea0565b9695505050505050565b60008151905061355b81612ad6565b92915050565b60006020828403121561357757613576612a5f565b5b60006135858482850161354c565b91505092915050565b60006060820190506135a36000830186612a2b565b6135b06020830185612e5b565b6135bd6040830184612ea0565b949350505050565b60006135d082612dc0565b915063ffffffff82036135e6576135e56133bb565b5b600182019050919050565b7f666565203c2030206f72203e2031300000000000000000000000000000000000600082015250565b6000613627600f83613139565b9150613632826135f1565b602082019050919050565b600060208201905081810360008301526136568161361a565b9050919050565b600061366882612dc0565b915061367383612dc0565b9250828203905063ffffffff81111561368f5761368e6133bb565b5b92915050565b7f746865206c6173742067616d65206973206e6f74206f76657200000000000000600082015250565b60006136cb601983613139565b91506136d682613695565b602082019050919050565b600060208201905081810360008301526136fa816136be565b9050919050565b60006040820190506137166000830185612e5b565b6137236020830184612a2b565b9392505050565b61373381612e85565b811461373e57600080fd5b50565b6000815190506137508161372a565b92915050565b60006020828403121561376c5761376b612a5f565b5b600061377a84828501613741565b91505092915050565b60006060820190506137986000830186612e5b565b6137a56020830185612e5b565b6137b26040830184612a2b565b949350505050565b7f4661696c656420746f207472616e7366657220746f6b656e7320746f20636f6e60008201527f7472616374000000000000000000000000000000000000000000000000000000602082015250565b6000613816602583613139565b9150613821826137ba565b604082019050919050565b6000602082019050818103600083015261384581613809565b9050919050565b7f4661696c656420746f207472616e7366657220746f6b656e7300000000000000600082015250565b6000613882601983613139565b915061388d8261384c565b602082019050919050565b600060208201905081810360008301526138b181613875565b9050919050565b60006138c382612a21565b91506138ce83612a21565b92508282039050818111156138e6576138e56133bb565b5b92915050565b7f6465706f73697420616d6f756e74206d7573742062652067726561746572207460008201527f68616e2030000000000000000000000000000000000000000000000000000000602082015250565b6000613948602583613139565b9150613953826138ec565b604082019050919050565b600060208201905081810360008301526139778161393b565b9050919050565b7f72657175657374206e6f7420666f756e64000000000000000000000000000000600082015250565b60006139b4601183613139565b91506139bf8261397e565b602082019050919050565b600060208201905081810360008301526139e3816139a7565b9050919050565b7f4e487b7100000000000000000000000000000000000000000000000000000000600052601260045260246000fd5b6000613a2482612a21565b9150613a2f83612a21565b925082613a3f57613a3e6139ea565b5b828206905092915050565b7f4f776e61626c653a206e6577206f776e657220697320746865207a65726f206160008201527f6464726573730000000000000000000000000000000000000000000000000000602082015250565b6000613aa6602683613139565b9150613ab182613a4a565b604082019050919050565b60006020820190508181036000830152613ad581613a99565b9050919050565b7f4f776e61626c653a2063616c6c6572206973206e6f7420746865206f776e6572600082015250565b6000613b12602083613139565b9150613b1d82613adc565b602082019050919050565b60006020820190508181036000830152613b4181613b05565b9050919050565b6000613b5382612a21565b9150613b5e83612a21565b925082613b6e57613b6d6139ea565b5b828204905092915050565b6000819050919050565b6000613b9e613b99613b9484612e29565b613b79565b612e29565b9050919050565b6000613bb082613b83565b9050919050565b6000613bc282613ba5565b9050919050565b613bd281613bb7565b82525050565b6000604082019050613bed6000830185613bc9565b613bfa6020830184612a2b565b9392505050565b6000613c0c82612a21565b9150613c1783612a21565b9250828201905080821115613c2f57613c2e6133bb565b5b9291505056fea264697066735822122017453b1753b17ce9893e6054922e71a4e6befb03ca8afd2fa8497c28f68594c364736f6c63430008110033",
  "linkReferences": {},
  "deployedLinkReferences": {}
}