{
  "_format": "hh-sol-artifact-1",
  "contractName": "RSPGameOld",
  "sourceName": "contracts/rsp-game-old.sol",
  "abi": [
    {
      "inputs": [],
      "stateMutability": "nonpayable",
      "type": "constructor"
    },
    {
      "inputs": [
        {
          "internalType": "address",
          "name": "have",
          "type": "address"
        },
        {
          "internalType": "address",
          "name": "want",
          "type": "address"
        }
      ],
      "name": "OnlyCoordinatorCanFulfill",
      "type": "error"
    },
    {
      "anonymous": false,
      "inputs": [
        {
          "indexed": true,
          "internalType": "address",
          "name": "previousOwner",
          "type": "address"
        },
        {
          "indexed": true,
          "internalType": "address",
          "name": "newOwner",
          "type": "address"
        }
      ],
      "name": "OwnershipTransferred",
      "type": "event"
    },
    {
      "anonymous": false,
      "inputs": [
        {
          "indexed": false,
          "internalType": "uint256",
          "name": "amountBet",
          "type": "uint256"
        },
        {
          "indexed": false,
          "internalType": "address",
          "name": "player",
          "type": "address"
        },
        {
          "indexed": false,
          "internalType": "uint32",
          "name": "numberGame",
          "type": "uint32"
        }
      ],
      "name": "newGame",
      "type": "event"
    },
    {
      "anonymous": false,
      "inputs": [
        {
          "indexed": false,
          "internalType": "uint256",
          "name": "amountWin",
          "type": "uint256"
        },
        {
          "indexed": false,
          "internalType": "address",
          "name": "winnerAddress",
          "type": "address"
        },
        {
          "indexed": false,
          "internalType": "uint32",
          "name": "numberGame",
          "type": "uint32"
        }
      ],
      "name": "newWin",
      "type": "event"
    },
    {
      "inputs": [
        {
          "internalType": "uint32",
          "name": "_callbackGasLimit",
          "type": "uint32"
        }
      ],
      "name": "changeCallbackGasLimit",
      "outputs": [],
      "stateMutability": "nonpayable",
      "type": "function"
    },
    {
      "inputs": [
        {
          "internalType": "uint32",
          "name": "_feeGame",
          "type": "uint32"
        }
      ],
      "name": "changeFee",
      "outputs": [],
      "stateMutability": "nonpayable",
      "type": "function"
    },
    {
      "inputs": [
        {
          "internalType": "bytes32",
          "name": "_keyHash",
          "type": "bytes32"
        }
      ],
      "name": "changeKeyHash",
      "outputs": [],
      "stateMutability": "nonpayable",
      "type": "function"
    },
    {
      "inputs": [
        {
          "internalType": "uint64",
          "name": "_subscriptionId",
          "type": "uint64"
        }
      ],
      "name": "changeSubscriptionId",
      "outputs": [],
      "stateMutability": "nonpayable",
      "type": "function"
    },
    {
      "inputs": [
        {
          "internalType": "uint256",
          "name": "amountBet",
          "type": "uint256"
        },
        {
          "internalType": "uint8",
          "name": "userProperty",
          "type": "uint8"
        }
      ],
      "name": "createGame",
      "outputs": [],
      "stateMutability": "payable",
      "type": "function"
    },
    {
      "inputs": [],
      "name": "deposit",
      "outputs": [],
      "stateMutability": "payable",
      "type": "function"
    },
    {
      "inputs": [],
      "name": "feeGame",
      "outputs": [
        {
          "internalType": "uint32",
          "name": "",
          "type": "uint32"
        }
      ],
      "stateMutability": "view",
      "type": "function"
    },
    {
      "inputs": [],
      "name": "gameNumber",
      "outputs": [
        {
          "internalType": "uint32",
          "name": "",
          "type": "uint32"
        }
      ],
      "stateMutability": "view",
      "type": "function"
    },
    {
      "inputs": [
        {
          "internalType": "uint256",
          "name": "_gameNumber",
          "type": "uint256"
        }
      ],
      "name": "getGameProperty",
      "outputs": [
        {
          "internalType": "uint8",
          "name": "userProperty",
          "type": "uint8"
        },
        {
          "internalType": "uint8",
          "name": "oracleProperty",
          "type": "uint8"
        }
      ],
      "stateMutability": "view",
      "type": "function"
    },
    {
      "inputs": [
        {
          "internalType": "uint256",
          "name": "_gameNumber",
          "type": "uint256"
        }
      ],
      "name": "getGameStatus",
      "outputs": [
        {
          "internalType": "address payable",
          "name": "player",
          "type": "address"
        },
        {
          "internalType": "uint256",
          "name": "amountBet",
          "type": "uint256"
        },
        {
          "internalType": "uint256",
          "name": "requestId",
          "type": "uint256"
        },
        {
          "internalType": "bool",
          "name": "isLive",
          "type": "bool"
        },
        {
          "internalType": "address payable",
          "name": "winner",
          "type": "address"
        }
      ],
      "stateMutability": "view",
      "type": "function"
    },
    {
      "inputs": [
        {
          "internalType": "uint256",
          "name": "_gameNumber",
          "type": "uint256"
        }
      ],
      "name": "getOracleNumber",
      "outputs": [
        {
          "internalType": "uint256",
          "name": "oracleNumber",
          "type": "uint256"
        }
      ],
      "stateMutability": "view",
      "type": "function"
    },
    {
      "inputs": [
        {
          "internalType": "uint256",
          "name": "_requestId",
          "type": "uint256"
        }
      ],
      "name": "getRequestStatus",
      "outputs": [
        {
          "internalType": "bool",
          "name": "fulfilled",
          "type": "bool"
        },
        {
          "internalType": "uint256[]",
          "name": "randomWords",
          "type": "uint256[]"
        }
      ],
      "stateMutability": "view",
      "type": "function"
    },
    {
      "inputs": [],
      "name": "maxAmountBet",
      "outputs": [
        {
          "internalType": "uint256",
          "name": "",
          "type": "uint256"
        }
      ],
      "stateMutability": "view",
      "type": "function"
    },
    {
      "inputs": [],
      "name": "minAmountBet",
      "outputs": [
        {
          "internalType": "uint256",
          "name": "",
          "type": "uint256"
        }
      ],
      "stateMutability": "view",
      "type": "function"
    },
    {
      "inputs": [],
      "name": "owner",
      "outputs": [
        {
          "internalType": "address",
          "name": "",
          "type": "address"
        }
      ],
      "stateMutability": "view",
      "type": "function"
    },
    {
      "inputs": [
        {
          "internalType": "uint256",
          "name": "requestId",
          "type": "uint256"
        },
        {
          "internalType": "uint256[]",
          "name": "randomWords",
          "type": "uint256[]"
        }
      ],
      "name": "rawFulfillRandomWords",
      "outputs": [],
      "stateMutability": "nonpayable",
      "type": "function"
    },
    {
      "inputs": [],
      "name": "renounceOwnership",
      "outputs": [],
      "stateMutability": "nonpayable",
      "type": "function"
    },
    {
      "inputs": [
        {
          "internalType": "uint256",
          "name": "",
          "type": "uint256"
        }
      ],
      "name": "s_games",
      "outputs": [
        {
          "internalType": "address payable",
          "name": "player",
          "type": "address"
        },
        {
          "internalType": "uint8",
          "name": "userProperty",
          "type": "uint8"
        },
        {
          "internalType": "uint256",
          "name": "amountBet",
          "type": "uint256"
        },
        {
          "internalType": "uint256",
          "name": "requestId",
          "type": "uint256"
        },
        {
          "internalType": "bool",
          "name": "isLive",
          "type": "bool"
        },
        {
          "internalType": "address payable",
          "name": "winner",
          "type": "address"
        }
      ],
      "stateMutability": "view",
      "type": "function"
    },
    {
      "inputs": [
        {
          "internalType": "uint256",
          "name": "",
          "type": "uint256"
        }
      ],
      "name": "s_requests",
      "outputs": [
        {
          "internalType": "bool",
          "name": "fulfilled",
          "type": "bool"
        },
        {
          "internalType": "bool",
          "name": "exists",
          "type": "bool"
        },
        {
          "internalType": "uint32",
          "name": "numberGame",
          "type": "uint32"
        }
      ],
      "stateMutability": "view",
      "type": "function"
    },
    {
      "inputs": [
        {
          "internalType": "address",
          "name": "newOwner",
          "type": "address"
        }
      ],
      "name": "transferOwnership",
      "outputs": [],
      "stateMutability": "nonpayable",
      "type": "function"
    },
    {
      "inputs": [],
      "name": "withdraw",
      "outputs": [],
      "stateMutability": "nonpayable",
      "type": "function"
    }
  ],
  "bytecode": "0x60a0604052736a2aad07396b36fe02a22b33cf443582f682c82f600260006101000a81548173ffffffffffffffffffffffffffffffffffffffff021916908373ffffffffffffffffffffffffffffffffffffffff1602179055507fd4bb89654db74673a187bd804519e65e3f71a52bc55f11da7601a13dcf50531460001b600355620186a0600460006101000a81548163ffffffff021916908363ffffffff16021790555060036004806101000a81548161ffff021916908361ffff1602179055506001600460066101000a81548163ffffffff021916908363ffffffff1602179055506109fd6004600a6101000a81548167ffffffffffffffff021916908367ffffffffffffffff1602179055506001600760006101000a81548163ffffffff021916908363ffffffff1602179055506003600760046101000a81548163ffffffff021916908363ffffffff16021790555066038d7ea4c68000600855670de0b6b3a76400006009553480156200017657600080fd5b50600260009054906101000a900473ffffffffffffffffffffffffffffffffffffffff168073ffffffffffffffffffffffffffffffffffffffff1660808173ffffffffffffffffffffffffffffffffffffffff168152505050620001ef620001e36200025860201b60201c565b6200026060201b60201c565b600260009054906101000a900473ffffffffffffffffffffffffffffffffffffffff16600160006101000a81548173ffffffffffffffffffffffffffffffffffffffff021916908373ffffffffffffffffffffffffffffffffffffffff16021790555062000324565b600033905090565b60008060009054906101000a900473ffffffffffffffffffffffffffffffffffffffff169050816000806101000a81548173ffffffffffffffffffffffffffffffffffffffff021916908373ffffffffffffffffffffffffffffffffffffffff1602179055508173ffffffffffffffffffffffffffffffffffffffff168173ffffffffffffffffffffffffffffffffffffffff167f8be0079c531659141344cd1fd0a4f28419497f9722a3daafe3b4186f6b6457e060405160405180910390a35050565b608051612f2a62000347600039600081816106aa01526106fe0152612f2a6000f3fe60806040526004361061012a5760003560e01c80638da5cb5b116100ab578063d8a4676f1161006f578063d8a4676f146103ba578063d8d40cee146103f8578063d9fa30f414610423578063e86a51cb1461044e578063f2fde38b14610477578063fcbad5c2146104a05761012a565b80638da5cb5b146102d9578063a168fa8914610304578063b08c773014610343578063bcd480a51461036e578063d0e30db0146103b05761012a565b80633f0e9174116100f25780633f0e9174146102025780635db896b31461023f578063715018a61461025b5780638142dd531461027257806382588d761461029b5761012a565b80630f1bf4541461012f57806319d7a11e146101705780631fe543e3146101995780632f68f482146101c25780633ccfd60b146101eb575b600080fd5b34801561013b57600080fd5b5061015660048036038101906101519190611ec0565b6104cb565b604051610167959493929190611f58565b60405180910390f35b34801561017c57600080fd5b5061019760048036038101906101929190611feb565b610674565b005b3480156101a557600080fd5b506101c060048036038101906101bb9190612171565b6106a8565b005b3480156101ce57600080fd5b506101e960048036038101906101e49190612203565b610768565b005b3480156101f757600080fd5b5061020061077a565b005b34801561020e57600080fd5b5061022960048036038101906102249190611ec0565b6107da565b6040516102369190612230565b60405180910390f35b61025960048036038101906102549190612284565b6109f4565b005b34801561026757600080fd5b50610270610f48565b005b34801561027e57600080fd5b5061029960048036038101906102949190612300565b610f5c565b005b3480156102a757600080fd5b506102c260048036038101906102bd9190611ec0565b610fe5565b6040516102d092919061233c565b60405180910390f35b3480156102e557600080fd5b506102ee6112e8565b6040516102fb9190612386565b60405180910390f35b34801561031057600080fd5b5061032b60048036038101906103269190611ec0565b611311565b60405161033a939291906123b0565b60405180910390f35b34801561034f57600080fd5b50610358611365565b60405161036591906123e7565b60405180910390f35b34801561037a57600080fd5b5061039560048036038101906103909190611ec0565b61137b565b6040516103a796959493929190612402565b60405180910390f35b6103b8611411565b005b3480156103c657600080fd5b506103e160048036038101906103dc9190611ec0565b611456565b6040516103ef929190612521565b60405180910390f35b34801561040457600080fd5b5061040d6115a7565b60405161041a91906123e7565b60405180910390f35b34801561042f57600080fd5b506104386115bd565b6040516104459190612230565b60405180910390f35b34801561045a57600080fd5b5061047560048036038101906104709190612300565b6115c3565b005b34801561048357600080fd5b5061049e6004803603810190610499919061257d565b6115ef565b005b3480156104ac57600080fd5b506104b5611672565b6040516104c29190612230565b60405180910390f35b6000806000806000600760009054906101000a900463ffffffff1663ffffffff16861061052d576040517f08c379a000000000000000000000000000000000000000000000000000000000815260040161052490612607565b60405180910390fd5b6000600660008881526020019081526020016000206040518060c00160405290816000820160009054906101000a900473ffffffffffffffffffffffffffffffffffffffff1673ffffffffffffffffffffffffffffffffffffffff1673ffffffffffffffffffffffffffffffffffffffff1681526020016000820160149054906101000a900460ff1660ff1660ff16815260200160018201548152602001600282015481526020016003820160009054906101000a900460ff161515151581526020016003820160019054906101000a900473ffffffffffffffffffffffffffffffffffffffff1673ffffffffffffffffffffffffffffffffffffffff1673ffffffffffffffffffffffffffffffffffffffff1681525050905080600001518160400151826060015183608001518460a00151955095509550955095505091939590929450565b61067c611678565b806004600a6101000a81548167ffffffffffffffff021916908367ffffffffffffffff16021790555050565b7f000000000000000000000000000000000000000000000000000000000000000073ffffffffffffffffffffffffffffffffffffffff163373ffffffffffffffffffffffffffffffffffffffff161461075a57337f00000000000000000000000000000000000000000000000000000000000000006040517f1cf993f4000000000000000000000000000000000000000000000000000000008152600401610751929190612627565b60405180910390fd5b61076482826116f6565b5050565b610770611678565b8060038190555050565b610782611678565b600061078c6112e8565b90508073ffffffffffffffffffffffffffffffffffffffff166108fc600a549081150290604051600060405180830381858888f193505050501580156107d6573d6000803e3d6000fd5b5050565b6000600760009054906101000a900463ffffffff1663ffffffff168210610836576040517f08c379a000000000000000000000000000000000000000000000000000000000815260040161082d90612607565b60405180910390fd5b6006600083815260200190815260200160002060030160009054906101000a900460ff161561089a576040517f08c379a00000000000000000000000000000000000000000000000000000000081526004016108919061269c565b60405180910390fd5b6000600660008481526020019081526020016000206040518060c00160405290816000820160009054906101000a900473ffffffffffffffffffffffffffffffffffffffff1673ffffffffffffffffffffffffffffffffffffffff1673ffffffffffffffffffffffffffffffffffffffff1681526020016000820160149054906101000a900460ff1660ff1660ff16815260200160018201548152602001600282015481526020016003820160009054906101000a900460ff161515151581526020016003820160019054906101000a900473ffffffffffffffffffffffffffffffffffffffff1673ffffffffffffffffffffffffffffffffffffffff1673ffffffffffffffffffffffffffffffffffffffff1681525050905060056000826060015181526020019081526020016000206001016000815481106109e1576109e06126bc565b5b9060005260206000200154915050919050565b6008543410158015610a0857506009543411155b610a47576040517f08c379a0000000000000000000000000000000000000000000000000000000008152600401610a3e9061275d565b60405180910390fd5b813414610a89576040517f08c379a0000000000000000000000000000000000000000000000000000000008152600401610a80906127c9565b60405180910390fd5b60008160ff1610158015610aa1575060028160ff1611155b610ae0576040517f08c379a0000000000000000000000000000000000000000000000000000000008152600401610ad790612835565b60405180910390fd5b600282610aed9190612884565b4711610b2e576040517f08c379a0000000000000000000000000000000000000000000000000000000008152600401610b2590612938565b60405180910390fd5b6000600160009054906101000a900473ffffffffffffffffffffffffffffffffffffffff1673ffffffffffffffffffffffffffffffffffffffff16635d3b1d306003546004600a9054906101000a900467ffffffffffffffff1660048054906101000a900461ffff16600460009054906101000a900463ffffffff16600460069054906101000a900463ffffffff166040518663ffffffff1660e01b8152600401610bdd959493929190612993565b6020604051808303816000875af1158015610bfc573d6000803e3d6000fd5b505050506040513d601f19601f82011682018060405250810190610c2091906129fb565b90506040518060800160405280600015158152602001600115158152602001600067ffffffffffffffff811115610c5a57610c5961202e565b5b604051908082528060200260200182016040528015610c885781602001602082028036833780820191505090505b508152602001600760009054906101000a900463ffffffff1663ffffffff168152506005600083815260200190815260200160002060008201518160000160006101000a81548160ff02191690831515021790555060208201518160000160016101000a81548160ff0219169083151502179055506040820151816001019080519060200190610d19929190611e0c565b5060608201518160020160006101000a81548163ffffffff021916908363ffffffff1602179055509050507f768be44e21ebf717fc0ca0fa198dac2df2f3fc40b702bcc93e2a7f140a9fa8808333600760009054906101000a900463ffffffff16604051610d8993929190612a28565b60405180910390a16040518060c001604052803373ffffffffffffffffffffffffffffffffffffffff1681526020018360ff168152602001348152602001828152602001600115158152602001600073ffffffffffffffffffffffffffffffffffffffff1681525060066000600760009054906101000a900463ffffffff1663ffffffff16815260200190815260200160002060008201518160000160006101000a81548173ffffffffffffffffffffffffffffffffffffffff021916908373ffffffffffffffffffffffffffffffffffffffff16021790555060208201518160000160146101000a81548160ff021916908360ff160217905550604082015181600101556060820151816002015560808201518160030160006101000a81548160ff02191690831515021790555060a08201518160030160016101000a81548173ffffffffffffffffffffffffffffffffffffffff021916908373ffffffffffffffffffffffffffffffffffffffff1602179055509050506007600081819054906101000a900463ffffffff1680929190610f2490612a5f565b91906101000a81548163ffffffff021916908363ffffffff16021790555050505050565b610f50611678565b610f5a6000611d40565b565b610f64611678565b60008163ffffffff1610158015610f825750600a8163ffffffff1611155b610fc1576040517f08c379a0000000000000000000000000000000000000000000000000000000008152600401610fb890612ad7565b60405180910390fd5b80600760046101000a81548163ffffffff021916908363ffffffff16021790555050565b600080600760009054906101000a900463ffffffff1663ffffffff168310611042576040517f08c379a000000000000000000000000000000000000000000000000000000000815260040161103990612607565b60405180910390fd5b6006600084815260200190815260200160002060030160009054906101000a900460ff16156110a6576040517f08c379a000000000000000000000000000000000000000000000000000000000815260040161109d9061269c565b60405180910390fd5b6000600660008581526020019081526020016000206040518060c00160405290816000820160009054906101000a900473ffffffffffffffffffffffffffffffffffffffff1673ffffffffffffffffffffffffffffffffffffffff1673ffffffffffffffffffffffffffffffffffffffff1681526020016000820160149054906101000a900460ff1660ff1660ff16815260200160018201548152602001600282015481526020016003820160009054906101000a900460ff161515151581526020016003820160019054906101000a900473ffffffffffffffffffffffffffffffffffffffff1673ffffffffffffffffffffffffffffffffffffffff1673ffffffffffffffffffffffffffffffffffffffff16815250509050600060056000600660008881526020019081526020016000206002015481526020019081526020016000206040518060800160405290816000820160009054906101000a900460ff161515151581526020016000820160019054906101000a900460ff161515151581526020016001820180548060200260200160405190810160405280929190818152602001828054801561127b57602002820191906000526020600020905b815481526020019060010190808311611267575b505050505081526020016002820160009054906101000a900463ffffffff1663ffffffff1663ffffffff168152505090508160200151600382604001516000815181106112cb576112ca6126bc565b5b60200260200101516112dd9190612b26565b935093505050915091565b60008060009054906101000a900473ffffffffffffffffffffffffffffffffffffffff16905090565b60056020528060005260406000206000915090508060000160009054906101000a900460ff16908060000160019054906101000a900460ff16908060020160009054906101000a900463ffffffff16905083565b600760049054906101000a900463ffffffff1681565b60066020528060005260406000206000915090508060000160009054906101000a900473ffffffffffffffffffffffffffffffffffffffff16908060000160149054906101000a900460ff16908060010154908060020154908060030160009054906101000a900460ff16908060030160019054906101000a900473ffffffffffffffffffffffffffffffffffffffff16905086565b60003411611454576040517f08c379a000000000000000000000000000000000000000000000000000000000815260040161144b90612bc9565b60405180910390fd5b565b600060606005600084815260200190815260200160002060000160019054906101000a900460ff166114bd576040517f08c379a00000000000000000000000000000000000000000000000000000000081526004016114b490612c35565b60405180910390fd5b6000600560008581526020019081526020016000206040518060800160405290816000820160009054906101000a900460ff161515151581526020016000820160019054906101000a900460ff161515151581526020016001820180548060200260200160405190810160405280929190818152602001828054801561156257602002820191906000526020600020905b81548152602001906001019080831161154e575b505050505081526020016002820160009054906101000a900463ffffffff1663ffffffff1663ffffffff16815250509050806000015181604001519250925050915091565b600760009054906101000a900463ffffffff1681565b60085481565b6115cb611678565b80600460006101000a81548163ffffffff021916908363ffffffff16021790555050565b6115f7611678565b600073ffffffffffffffffffffffffffffffffffffffff168173ffffffffffffffffffffffffffffffffffffffff1603611666576040517f08c379a000000000000000000000000000000000000000000000000000000000815260040161165d90612cc7565b60405180910390fd5b61166f81611d40565b50565b60095481565b611680611e04565b73ffffffffffffffffffffffffffffffffffffffff1661169e6112e8565b73ffffffffffffffffffffffffffffffffffffffff16146116f4576040517f08c379a00000000000000000000000000000000000000000000000000000000081526004016116eb90612d33565b60405180910390fd5b565b6005600083815260200190815260200160002060000160019054906101000a900460ff16611759576040517f08c379a000000000000000000000000000000000000000000000000000000000815260040161175090612c35565b60405180910390fd5b60016005600084815260200190815260200160002060000160006101000a81548160ff021916908315150217905550806005600084815260200190815260200160002060010190805190602001906117b2929190611e0c565b5060006005600084815260200190815260200160002060020160009054906101000a900463ffffffff1690506000600760049054906101000a900463ffffffff1663ffffffff166064600660008563ffffffff168152602001908152602001600020600101546118229190612d53565b61182c9190612884565b90506000600384600081518110611846576118456126bc565b5b60200260200101516118589190612b26565b90506000600660008563ffffffff16815260200190815260200160002060000160149054906101000a900460ff16905060008260ff1614801561189e575060018160ff16145b806118bb575060018260ff161480156118ba575060028160ff16145b5b806118d8575060028260ff161480156118d7575060008160ff16145b5b156119945730600660008663ffffffff16815260200190815260200160002060030160016101000a81548173ffffffffffffffffffffffffffffffffffffffff021916908373ffffffffffffffffffffffffffffffffffffffff1602179055507f0a0620f18e280bce682e24c8a5e48cc76d6fc1fcc4e4f6ef491177db8813c146600660008663ffffffff16815260200190815260200160002060010154308660405161198793929190612a28565b60405180910390a1611cea565b8060ff168260ff1603611ac857600660008563ffffffff16815260200190815260200160002060000160009054906101000a900473ffffffffffffffffffffffffffffffffffffffff1673ffffffffffffffffffffffffffffffffffffffff166108fc84600660008863ffffffff16815260200190815260200160002060010154611a1f9190612d84565b9081150290604051600060405180830381858888f19350505050158015611a4a573d6000803e3d6000fd5b507f0a0620f18e280bce682e24c8a5e48cc76d6fc1fcc4e4f6ef491177db8813c1466000600660008763ffffffff16815260200190815260200160002060030160019054906101000a900473ffffffffffffffffffffffffffffffffffffffff1686604051611abb93929190612e52565b60405180910390a1611ce9565b60008260ff16148015611ade575060028160ff16145b80611afb575060018260ff16148015611afa575060008160ff16145b5b80611b18575060028260ff16148015611b17575060018160ff16145b5b15611ce857600660008563ffffffff16815260200190815260200160002060000160009054906101000a900473ffffffffffffffffffffffffffffffffffffffff16600660008663ffffffff16815260200190815260200160002060030160016101000a81548173ffffffffffffffffffffffffffffffffffffffff021916908373ffffffffffffffffffffffffffffffffffffffff1602179055506000836002600660008863ffffffff16815260200190815260200160002060010154611be09190612884565b611bea9190612d84565b9050600660008663ffffffff16815260200190815260200160002060000160009054906101000a900473ffffffffffffffffffffffffffffffffffffffff1673ffffffffffffffffffffffffffffffffffffffff166108fc829081150290604051600060405180830381858888f19350505050158015611c6e573d6000803e3d6000fd5b507f0a0620f18e280bce682e24c8a5e48cc76d6fc1fcc4e4f6ef491177db8813c14681600660008863ffffffff16815260200190815260200160002060000160009054906101000a900473ffffffffffffffffffffffffffffffffffffffff1687604051611cde93929190612e89565b60405180910390a1505b5b5b6000600660008663ffffffff16815260200190815260200160002060030160006101000a81548160ff02191690831515021790555082600a6000828254611d319190612ec0565b92505081905550505050505050565b60008060009054906101000a900473ffffffffffffffffffffffffffffffffffffffff169050816000806101000a81548173ffffffffffffffffffffffffffffffffffffffff021916908373ffffffffffffffffffffffffffffffffffffffff1602179055508173ffffffffffffffffffffffffffffffffffffffff168173ffffffffffffffffffffffffffffffffffffffff167f8be0079c531659141344cd1fd0a4f28419497f9722a3daafe3b4186f6b6457e060405160405180910390a35050565b600033905090565b828054828255906000526020600020908101928215611e48579160200282015b82811115611e47578251825591602001919060010190611e2c565b5b509050611e559190611e59565b5090565b5b80821115611e72576000816000905550600101611e5a565b5090565b6000604051905090565b600080fd5b600080fd5b6000819050919050565b611e9d81611e8a565b8114611ea857600080fd5b50565b600081359050611eba81611e94565b92915050565b600060208284031215611ed657611ed5611e80565b5b6000611ee484828501611eab565b91505092915050565b600073ffffffffffffffffffffffffffffffffffffffff82169050919050565b6000611f1882611eed565b9050919050565b611f2881611f0d565b82525050565b611f3781611e8a565b82525050565b60008115159050919050565b611f5281611f3d565b82525050565b600060a082019050611f6d6000830188611f1f565b611f7a6020830187611f2e565b611f876040830186611f2e565b611f946060830185611f49565b611fa16080830184611f1f565b9695505050505050565b600067ffffffffffffffff82169050919050565b611fc881611fab565b8114611fd357600080fd5b50565b600081359050611fe581611fbf565b92915050565b60006020828403121561200157612000611e80565b5b600061200f84828501611fd6565b91505092915050565b600080fd5b6000601f19601f8301169050919050565b7f4e487b7100000000000000000000000000000000000000000000000000000000600052604160045260246000fd5b6120668261201d565b810181811067ffffffffffffffff821117156120855761208461202e565b5b80604052505050565b6000612098611e76565b90506120a4828261205d565b919050565b600067ffffffffffffffff8211156120c4576120c361202e565b5b602082029050602081019050919050565b600080fd5b60006120ed6120e8846120a9565b61208e565b905080838252602082019050602084028301858111156121105761210f6120d5565b5b835b8181101561213957806121258882611eab565b845260208401935050602081019050612112565b5050509392505050565b600082601f83011261215857612157612018565b5b81356121688482602086016120da565b91505092915050565b6000806040838503121561218857612187611e80565b5b600061219685828601611eab565b925050602083013567ffffffffffffffff8111156121b7576121b6611e85565b5b6121c385828601612143565b9150509250929050565b6000819050919050565b6121e0816121cd565b81146121eb57600080fd5b50565b6000813590506121fd816121d7565b92915050565b60006020828403121561221957612218611e80565b5b6000612227848285016121ee565b91505092915050565b60006020820190506122456000830184611f2e565b92915050565b600060ff82169050919050565b6122618161224b565b811461226c57600080fd5b50565b60008135905061227e81612258565b92915050565b6000806040838503121561229b5761229a611e80565b5b60006122a985828601611eab565b92505060206122ba8582860161226f565b9150509250929050565b600063ffffffff82169050919050565b6122dd816122c4565b81146122e857600080fd5b50565b6000813590506122fa816122d4565b92915050565b60006020828403121561231657612315611e80565b5b6000612324848285016122eb565b91505092915050565b6123368161224b565b82525050565b6000604082019050612351600083018561232d565b61235e602083018461232d565b9392505050565b600061237082611eed565b9050919050565b61238081612365565b82525050565b600060208201905061239b6000830184612377565b92915050565b6123aa816122c4565b82525050565b60006060820190506123c56000830186611f49565b6123d26020830185611f49565b6123df60408301846123a1565b949350505050565b60006020820190506123fc60008301846123a1565b92915050565b600060c0820190506124176000830189611f1f565b612424602083018861232d565b6124316040830187611f2e565b61243e6060830186611f2e565b61244b6080830185611f49565b61245860a0830184611f1f565b979650505050505050565b600081519050919050565b600082825260208201905092915050565b6000819050602082019050919050565b61249881611e8a565b82525050565b60006124aa838361248f565b60208301905092915050565b6000602082019050919050565b60006124ce82612463565b6124d8818561246e565b93506124e38361247f565b8060005b838110156125145781516124fb888261249e565b9750612506836124b6565b9250506001810190506124e7565b5085935050505092915050565b60006040820190506125366000830185611f49565b818103602083015261254881846124c3565b90509392505050565b61255a81612365565b811461256557600080fd5b50565b60008135905061257781612551565b92915050565b60006020828403121561259357612592611e80565b5b60006125a184828501612568565b91505092915050565b600082825260208201905092915050565b7f6e756d6265722067616d65206e6f7420666f756e640000000000000000000000600082015250565b60006125f16015836125aa565b91506125fc826125bb565b602082019050919050565b60006020820190508181036000830152612620816125e4565b9050919050565b600060408201905061263c6000830185612377565b6126496020830184612377565b9392505050565b7f67616d65206973206e6f7420656e640000000000000000000000000000000000600082015250565b6000612686600f836125aa565b915061269182612650565b602082019050919050565b600060208201905081810360008301526126b581612679565b9050919050565b7f4e487b7100000000000000000000000000000000000000000000000000000000600052603260045260246000fd5b7f616d6f756e7420626574203c206d696e696e616c20626574206f72203e206d6160008201527f78696d616c206265740000000000000000000000000000000000000000000000602082015250565b60006127476029836125aa565b9150612752826126eb565b604082019050919050565b600060208201905081810360008301526127768161273a565b9050919050565b7f76616c756520213d20616d6f756e742062657400000000000000000000000000600082015250565b60006127b36013836125aa565b91506127be8261277d565b602082019050919050565b600060208201905081810360008301526127e2816127a6565b9050919050565b7f70726f7065727479206572726f72000000000000000000000000000000000000600082015250565b600061281f600e836125aa565b915061282a826127e9565b602082019050919050565b6000602082019050818103600083015261284e81612812565b9050919050565b7f4e487b7100000000000000000000000000000000000000000000000000000000600052601160045260246000fd5b600061288f82611e8a565b915061289a83611e8a565b92508282026128a881611e8a565b915082820484148315176128bf576128be612855565b5b5092915050565b7f62616c616e6365206f662074686520636f6e7472616374206973206e6f74206560008201527f6e6f756768000000000000000000000000000000000000000000000000000000602082015250565b60006129226025836125aa565b915061292d826128c6565b604082019050919050565b6000602082019050818103600083015261295181612915565b9050919050565b612961816121cd565b82525050565b61297081611fab565b82525050565b600061ffff82169050919050565b61298d81612976565b82525050565b600060a0820190506129a86000830188612958565b6129b56020830187612967565b6129c26040830186612984565b6129cf60608301856123a1565b6129dc60808301846123a1565b9695505050505050565b6000815190506129f581611e94565b92915050565b600060208284031215612a1157612a10611e80565b5b6000612a1f848285016129e6565b91505092915050565b6000606082019050612a3d6000830186611f2e565b612a4a6020830185612377565b612a5760408301846123a1565b949350505050565b6000612a6a826122c4565b915063ffffffff8203612a8057612a7f612855565b5b600182019050919050565b7f666565203c2030206f72203e2031300000000000000000000000000000000000600082015250565b6000612ac1600f836125aa565b9150612acc82612a8b565b602082019050919050565b60006020820190508181036000830152612af081612ab4565b9050919050565b7f4e487b7100000000000000000000000000000000000000000000000000000000600052601260045260246000fd5b6000612b3182611e8a565b9150612b3c83611e8a565b925082612b4c57612b4b612af7565b5b828206905092915050565b7f6465706f73697420616d6f756e74206d7573742062652067726561746572207460008201527f68616e2030000000000000000000000000000000000000000000000000000000602082015250565b6000612bb36025836125aa565b9150612bbe82612b57565b604082019050919050565b60006020820190508181036000830152612be281612ba6565b9050919050565b7f72657175657374206e6f7420666f756e64000000000000000000000000000000600082015250565b6000612c1f6011836125aa565b9150612c2a82612be9565b602082019050919050565b60006020820190508181036000830152612c4e81612c12565b9050919050565b7f4f776e61626c653a206e6577206f776e657220697320746865207a65726f206160008201527f6464726573730000000000000000000000000000000000000000000000000000602082015250565b6000612cb16026836125aa565b9150612cbc82612c55565b604082019050919050565b60006020820190508181036000830152612ce081612ca4565b9050919050565b7f4f776e61626c653a2063616c6c6572206973206e6f7420746865206f776e6572600082015250565b6000612d1d6020836125aa565b9150612d2882612ce7565b602082019050919050565b60006020820190508181036000830152612d4c81612d10565b9050919050565b6000612d5e82611e8a565b9150612d6983611e8a565b925082612d7957612d78612af7565b5b828204905092915050565b6000612d8f82611e8a565b9150612d9a83611e8a565b9250828203905081811115612db257612db1612855565b5b92915050565b6000819050919050565b6000819050919050565b6000612de7612de2612ddd84612db8565b612dc2565b611e8a565b9050919050565b612df781612dcc565b82525050565b6000612e18612e13612e0e84611eed565b612dc2565b611eed565b9050919050565b6000612e2a82612dfd565b9050919050565b6000612e3c82612e1f565b9050919050565b612e4c81612e31565b82525050565b6000606082019050612e676000830186612dee565b612e746020830185612e43565b612e8160408301846123a1565b949350505050565b6000606082019050612e9e6000830186611f2e565b612eab6020830185612e43565b612eb860408301846123a1565b949350505050565b6000612ecb82611e8a565b9150612ed683611e8a565b9250828201905080821115612eee57612eed612855565b5b9291505056fea2646970667358221220e3f8c8c21bc8e1d9f56d92e899cfe569f0e54583fe550f1779cd936a827f2df564736f6c63430008110033",
  "linkReferences": {},
  "deployedLinkReferences": {}
}